{
  "_format": "hh-sol-artifact-1",
  "contractName": "DisputeManager",
  "sourceName": "contracts/DisputeManager.sol",
  "abi": [
    {
      "inputs": [
        {
          "internalType": "address",
          "name": "_userRegistryAddress",
          "type": "address"
        },
        {
          "internalType": "address",
          "name": "_landRegistryAddress",
          "type": "address"
        }
      ],
      "stateMutability": "nonpayable",
      "type": "constructor"
    },
    {
      "anonymous": false,
      "inputs": [
        {
          "indexed": false,
          "internalType": "string",
          "name": "disputeId",
          "type": "string"
        },
        {
          "indexed": false,
          "internalType": "string",
          "name": "parcelId",
          "type": "string"
        },
        {
          "indexed": false,
          "internalType": "uint256",
          "name": "tokenId",
          "type": "uint256"
        },
        {
          "indexed": false,
          "internalType": "address",
          "name": "complainant",
          "type": "address"
        },
        {
          "indexed": false,
          "internalType": "string",
          "name": "ipfsHash",
          "type": "string"
        },
        {
          "indexed": false,
          "internalType": "uint256",
          "name": "timestamp",
          "type": "uint256"
        }
      ],
      "name": "DisputeFiled",
      "type": "event"
    },
    {
      "anonymous": false,
      "inputs": [
        {
          "indexed": false,
          "internalType": "string",
          "name": "disputeId",
          "type": "string"
        },
        {
          "indexed": false,
          "internalType": "enum DisputeManager.DisputeStatus",
          "name": "oldStatus",
          "type": "uint8"
        },
        {
          "indexed": false,
          "internalType": "enum DisputeManager.DisputeStatus",
          "name": "newStatus",
          "type": "uint8"
        },
        {
          "indexed": false,
          "internalType": "string",
          "name": "resolution",
          "type": "string"
        },
        {
          "indexed": false,
          "internalType": "uint256",
          "name": "timestamp",
          "type": "uint256"
        }
      ],
      "name": "DisputeStatusChanged",
      "type": "event"
    },
    {
      "anonymous": false,
      "inputs": [
        {
          "indexed": false,
          "internalType": "string",
          "name": "disputeId",
          "type": "string"
        },
        {
          "indexed": false,
          "internalType": "string",
          "name": "ipfsHash",
          "type": "string"
        },
        {
          "indexed": false,
          "internalType": "uint256",
          "name": "timestamp",
          "type": "uint256"
        }
      ],
      "name": "EvidenceAdded",
      "type": "event"
    },
    {
      "anonymous": false,
      "inputs": [
        {
          "indexed": false,
          "internalType": "address",
          "name": "account",
          "type": "address"
        }
      ],
      "name": "Paused",
      "type": "event"
    },
    {
      "anonymous": false,
      "inputs": [
        {
          "indexed": true,
          "internalType": "bytes32",
          "name": "role",
          "type": "bytes32"
        },
        {
          "indexed": true,
          "internalType": "bytes32",
          "name": "previousAdminRole",
          "type": "bytes32"
        },
        {
          "indexed": true,
          "internalType": "bytes32",
          "name": "newAdminRole",
          "type": "bytes32"
        }
      ],
      "name": "RoleAdminChanged",
      "type": "event"
    },
    {
      "anonymous": false,
      "inputs": [
        {
          "indexed": true,
          "internalType": "bytes32",
          "name": "role",
          "type": "bytes32"
        },
        {
          "indexed": true,
          "internalType": "address",
          "name": "account",
          "type": "address"
        },
        {
          "indexed": true,
          "internalType": "address",
          "name": "sender",
          "type": "address"
        }
      ],
      "name": "RoleGranted",
      "type": "event"
    },
    {
      "anonymous": false,
      "inputs": [
        {
          "indexed": true,
          "internalType": "bytes32",
          "name": "role",
          "type": "bytes32"
        },
        {
          "indexed": true,
          "internalType": "address",
          "name": "account",
          "type": "address"
        },
        {
          "indexed": true,
          "internalType": "address",
          "name": "sender",
          "type": "address"
        }
      ],
      "name": "RoleRevoked",
      "type": "event"
    },
    {
      "anonymous": false,
      "inputs": [
        {
          "indexed": false,
          "internalType": "address",
          "name": "account",
          "type": "address"
        }
      ],
      "name": "Unpaused",
      "type": "event"
    },
    {
      "inputs": [],
      "name": "AUDITOR_ROLE",
      "outputs": [
        {
          "internalType": "bytes32",
          "name": "",
          "type": "bytes32"
        }
      ],
      "stateMutability": "view",
      "type": "function"
    },
    {
      "inputs": [],
      "name": "COURT_AUTHORITY_ROLE",
      "outputs": [
        {
          "internalType": "bytes32",
          "name": "",
          "type": "bytes32"
        }
      ],
      "stateMutability": "view",
      "type": "function"
    },
    {
      "inputs": [],
      "name": "DEFAULT_ADMIN_ROLE",
      "outputs": [
        {
          "internalType": "bytes32",
          "name": "",
          "type": "bytes32"
        }
      ],
      "stateMutability": "view",
      "type": "function"
    },
    {
      "inputs": [
        {
          "internalType": "string",
          "name": "disputeId",
          "type": "string"
        },
        {
          "internalType": "string",
          "name": "newIpfsHash",
          "type": "string"
        }
      ],
      "name": "addEvidence",
      "outputs": [],
      "stateMutability": "nonpayable",
      "type": "function"
    },
    {
      "inputs": [
        {
          "internalType": "string",
          "name": "",
          "type": "string"
        }
      ],
      "name": "disputes",
      "outputs": [
        {
          "internalType": "string",
          "name": "disputeId",
          "type": "string"
        },
        {
          "internalType": "string",
          "name": "parcelId",
          "type": "string"
        },
        {
          "internalType": "uint256",
          "name": "tokenId",
          "type": "uint256"
        },
        {
          "internalType": "address",
          "name": "complainant",
          "type": "address"
        },
        {
          "internalType": "string",
          "name": "ipfsHash",
          "type": "string"
        },
        {
          "internalType": "enum DisputeManager.DisputeStatus",
          "name": "status",
          "type": "uint8"
        },
        {
          "internalType": "string",
          "name": "resolution",
          "type": "string"
        },
        {
          "internalType": "uint256",
          "name": "filedAt",
          "type": "uint256"
        },
        {
          "internalType": "uint256",
          "name": "lastModified",
          "type": "uint256"
        }
      ],
      "stateMutability": "view",
      "type": "function"
    },
    {
      "inputs": [
        {
          "internalType": "string",
          "name": "disputeId",
          "type": "string"
        },
        {
          "internalType": "string",
          "name": "parcelId",
          "type": "string"
        },
        {
          "internalType": "string",
          "name": "ipfsHash",
          "type": "string"
        }
      ],
      "name": "fileDispute",
      "outputs": [],
      "stateMutability": "nonpayable",
      "type": "function"
    },
    {
      "inputs": [
        {
          "internalType": "string",
          "name": "disputeId",
          "type": "string"
        }
      ],
      "name": "getDisputeById",
      "outputs": [
        {
          "internalType": "string",
          "name": "parcelId",
          "type": "string"
        },
        {
          "internalType": "uint256",
          "name": "tokenId",
          "type": "uint256"
        },
        {
          "internalType": "address",
          "name": "complainant",
          "type": "address"
        },
        {
          "internalType": "string",
          "name": "ipfsHash",
          "type": "string"
        },
        {
          "internalType": "enum DisputeManager.DisputeStatus",
          "name": "status",
          "type": "uint8"
        },
        {
          "internalType": "string",
          "name": "resolution",
          "type": "string"
        },
        {
          "internalType": "uint256",
          "name": "filedAt",
          "type": "uint256"
        },
        {
          "internalType": "uint256",
          "name": "lastModified",
          "type": "uint256"
        }
      ],
      "stateMutability": "view",
      "type": "function"
    },
    {
      "inputs": [
        {
          "internalType": "string",
          "name": "parcelId",
          "type": "string"
        }
      ],
      "name": "getDisputesByParcel",
      "outputs": [
        {
          "internalType": "string[]",
          "name": "",
          "type": "string[]"
        }
      ],
      "stateMutability": "view",
      "type": "function"
    },
    {
      "inputs": [
        {
          "internalType": "uint256",
          "name": "tokenId",
          "type": "uint256"
        }
      ],
      "name": "getDisputesByToken",
      "outputs": [
        {
          "internalType": "string[]",
          "name": "",
          "type": "string[]"
        }
      ],
      "stateMutability": "view",
      "type": "function"
    },
    {
      "inputs": [
        {
          "internalType": "bytes32",
          "name": "role",
          "type": "bytes32"
        }
      ],
      "name": "getRoleAdmin",
      "outputs": [
        {
          "internalType": "bytes32",
          "name": "",
          "type": "bytes32"
        }
      ],
      "stateMutability": "view",
      "type": "function"
    },
    {
      "inputs": [
        {
          "internalType": "bytes32",
          "name": "role",
          "type": "bytes32"
        },
        {
          "internalType": "address",
          "name": "account",
          "type": "address"
        }
      ],
      "name": "grantRole",
      "outputs": [],
      "stateMutability": "nonpayable",
      "type": "function"
    },
    {
      "inputs": [
        {
          "internalType": "bytes32",
          "name": "role",
          "type": "bytes32"
        },
        {
          "internalType": "address",
          "name": "account",
          "type": "address"
        }
      ],
      "name": "hasRole",
      "outputs": [
        {
          "internalType": "bool",
          "name": "",
          "type": "bool"
        }
      ],
      "stateMutability": "view",
      "type": "function"
    },
    {
      "inputs": [],
      "name": "landRegistry",
      "outputs": [
        {
          "internalType": "contract LandRegistry",
          "name": "",
          "type": "address"
        }
      ],
      "stateMutability": "view",
      "type": "function"
    },
    {
      "inputs": [
        {
          "internalType": "string",
          "name": "",
          "type": "string"
        },
        {
          "internalType": "uint256",
          "name": "",
          "type": "uint256"
        }
      ],
      "name": "parcelDisputes",
      "outputs": [
        {
          "internalType": "string",
          "name": "",
          "type": "string"
        }
      ],
      "stateMutability": "view",
      "type": "function"
    },
    {
      "inputs": [],
      "name": "pause",
      "outputs": [],
      "stateMutability": "nonpayable",
      "type": "function"
    },
    {
      "inputs": [],
      "name": "paused",
      "outputs": [
        {
          "internalType": "bool",
          "name": "",
          "type": "bool"
        }
      ],
      "stateMutability": "view",
      "type": "function"
    },
    {
      "inputs": [
        {
          "internalType": "bytes32",
          "name": "role",
          "type": "bytes32"
        },
        {
          "internalType": "address",
          "name": "account",
          "type": "address"
        }
      ],
      "name": "renounceRole",
      "outputs": [],
      "stateMutability": "nonpayable",
      "type": "function"
    },
    {
      "inputs": [
        {
          "internalType": "bytes32",
          "name": "role",
          "type": "bytes32"
        },
        {
          "internalType": "address",
          "name": "account",
          "type": "address"
        }
      ],
      "name": "revokeRole",
      "outputs": [],
      "stateMutability": "nonpayable",
      "type": "function"
    },
    {
      "inputs": [
        {
          "internalType": "bytes4",
          "name": "interfaceId",
          "type": "bytes4"
        }
      ],
      "name": "supportsInterface",
      "outputs": [
        {
          "internalType": "bool",
          "name": "",
          "type": "bool"
        }
      ],
      "stateMutability": "view",
      "type": "function"
    },
    {
      "inputs": [
        {
          "internalType": "uint256",
          "name": "",
          "type": "uint256"
        },
        {
          "internalType": "uint256",
          "name": "",
          "type": "uint256"
        }
      ],
      "name": "tokenDisputes",
      "outputs": [
        {
          "internalType": "string",
          "name": "",
          "type": "string"
        }
      ],
      "stateMutability": "view",
      "type": "function"
    },
    {
      "inputs": [],
      "name": "unpause",
      "outputs": [],
      "stateMutability": "nonpayable",
      "type": "function"
    },
    {
      "inputs": [
        {
          "internalType": "string",
          "name": "disputeId",
          "type": "string"
        },
        {
          "internalType": "enum DisputeManager.DisputeStatus",
          "name": "newStatus",
          "type": "uint8"
        },
        {
          "internalType": "string",
          "name": "resolutionIpfsHash",
          "type": "string"
        }
      ],
      "name": "updateDisputeStatus",
      "outputs": [],
      "stateMutability": "nonpayable",
      "type": "function"
    },
    {
      "inputs": [],
      "name": "userRegistry",
      "outputs": [
        {
          "internalType": "contract UserRegistry",
          "name": "",
          "type": "address"
        }
      ],
      "stateMutability": "view",
      "type": "function"
    }
  ],
  "bytecode": "0x60806040523480156200001157600080fd5b506040516200277e3803806200277e833981016040819052620000349162000145565b600180546001600160a81b0319166101006001600160a01b038581169190910291909117909155600280546001600160a01b0319169183169190911790556200007f60003362000087565b50506200017d565b6000828152602081815260408083206001600160a01b038516845290915290205460ff1662000124576000828152602081815260408083206001600160a01b03851684529091529020805460ff19166001179055620000e33390565b6001600160a01b0316816001600160a01b0316837f2f8788117e7eff1d82e926ec794901d17c78024a50270940304540a733656f0d60405160405180910390a45b5050565b80516001600160a01b03811681146200014057600080fd5b919050565b600080604083850312156200015957600080fd5b620001648362000128565b9150620001746020840162000128565b90509250929050565b6125f1806200018d6000396000f3fe608060405234801561001057600080fd5b506004361061014d5760003560e01c80637a77fc67116100c3578063a53328dc1161007c578063a53328dc14610300578063bd4dc02414610328578063d421e3381461033b578063d547741f14610362578063e73fcbd914610375578063eb5c0bea1461038857600080fd5b80637a77fc67146102975780638142f281146102b757806381a51a43146102ca5780638456cb59146102dd57806391d14854146102e5578063a217fddf146102f857600080fd5b806336568abe1161011557806336568abe146101f35780633f4ba83a1461020657806346970bad1461020e5780635c7460d6146102355780635c975abb146102655780636e1d616e1461027057600080fd5b806301ffc9a7146101525780630e21d5ce1461017a57806312d578a41461019a578063248a9ca3146101af5780632f2ff15d146101e0575b600080fd5b610165610160366004611b47565b61039b565b60405190151581526020015b60405180910390f35b61018d610188366004611b71565b6103d2565b6040516101719190611bda565b6101ad6101a8366004611d01565b6104be565b005b6101d26101bd366004611b71565b60009081526020819052604090206001015490565b604051908152602001610171565b6101ad6101ee366004611d9e565b61088d565b6101ad610201366004611d9e565b6108b7565b6101ad610935565b61022161021c366004611dce565b61094b565b604051610171989796959493929190611e3f565b60015461024d9061010090046001600160a01b031681565b6040516001600160a01b039091168152602001610171565b60015460ff16610165565b6101d27f59a1c48e5837ad7a7f3dcedcbe129bf3249ec4fbf651fd4f5e2600ead39fe2f581565b6102aa6102a5366004611eb8565b610cc9565b6040516101719190611efd565b6101ad6102c5366004611f1d565b610d91565b61018d6102d8366004611dce565b6110ec565b6101ad6111d8565b6101656102f3366004611d9e565b6111eb565b6101d2600081565b61031361030e366004611dce565b611214565b60405161017199989796959493929190611f7e565b60025461024d906001600160a01b031681565b6101d27f6c8c74ca89d51c51762b487723cebc763285d515b4c41b9a0e751475ee4bab2181565b6101ad610370366004611d9e565b61149c565b6102aa61038336600461200d565b6114c1565b6101ad61039636600461202f565b6114dd565b60006001600160e01b03198216637965db0b60e01b14806103cc57506301ffc9a760e01b6001600160e01b03198316145b92915050565b606060056000838152602001908152602001600020805480602002602001604051908101604052809291908181526020016000905b828210156104b357838290600052602060002001805461042690612093565b80601f016020809104026020016040519081016040528092919081815260200182805461045290612093565b801561049f5780601f106104745761010080835404028352916020019161049f565b820191906000526020600020905b81548152906001019060200180831161048257829003601f168201915b505050505081526020019060010190610407565b505050509050919050565b6104c6611728565b6003836040516104d691906120cd565b90815260405190819003602001902080546104f090612093565b15905061053d5760405162461bcd60e51b81526020600482015260166024820152754469737075746520616c72656164792065786973747360501b60448201526064015b60405180910390fd5b60008151116105835760405162461bcd60e51b815260206004820152601260248201527112541194c81a185cda081c995c5d5a5c995960721b6044820152606401610534565b60025460405163f5f7bf1560e01b815260009182916001600160a01b039091169063f5f7bf15906105b8908790600401611efd565b600060405180830381865afa1580156105d5573d6000803e3d6000fd5b505050506040513d6000823e601f3d908101601f191682016040526105fd91908101906120f9565b5095505050505091506000811161064e5760405162461bcd60e51b815260206004820152601560248201527414185c98d95b08191bd95cc81b9bdd08195e1a5cdd605a1b6044820152606401610534565b6040805161012081018252868152602081018690529081018390523360608201526080810184905260a0810160008152602001604051806020016040528060008152508152602001428152602001428152506003866040516106b091906120cd565b908152604051908190036020019020815181906106cd908261220b565b50602082015160018201906106e2908261220b565b506040820151600282015560608201516003820180546001600160a01b0319166001600160a01b0390921691909117905560808201516004820190610727908261220b565b5060a082015160058201805460ff1916600183600381111561074b5761074b611e0b565b021790555060c08201516006820190610764908261220b565b5060e08201518160070155610100820151816008015590505060048460405161078d91906120cd565b9081526040516020918190038201902080546001810182556000918252919020016107b8868261220b565b506000828152600560209081526040822080546001810182559083529120016107e1868261220b565b5060028054604051630420602f60e01b81526001600160a01b0390911691630420602f916108139188916004016122d8565b600060405180830381600087803b15801561082d57600080fd5b505af1158015610841573d6000803e3d6000fd5b505050507fddd1cabe4ddeccfbc2e7db6c80825e1666b8eded2c19dcf1c7d4e0a72ef229ee85858433874260405161087e96959493929190612303565b60405180910390a15050505050565b6000828152602081905260409020600101546108a881611770565b6108b2838361177a565b505050565b6001600160a01b03811633146109275760405162461bcd60e51b815260206004820152602f60248201527f416363657373436f6e74726f6c3a2063616e206f6e6c792072656e6f756e636560448201526e103937b632b9903337b91039b2b63360891b6064820152608401610534565b61093182826117fe565b5050565b600061094081611770565b610948611863565b50565b606060008060606000606060008088600060038260405161096c91906120cd565b908152604051908190036020019020805461098690612093565b9050116109a55760405162461bcd60e51b815260040161053490612366565b600060038b6040516109b791906120cd565b9081526020016040518091039020604051806101200160405290816000820180546109e190612093565b80601f0160208091040260200160405190810160405280929190818152602001828054610a0d90612093565b8015610a5a5780601f10610a2f57610100808354040283529160200191610a5a565b820191906000526020600020905b815481529060010190602001808311610a3d57829003601f168201915b50505050508152602001600182018054610a7390612093565b80601f0160208091040260200160405190810160405280929190818152602001828054610a9f90612093565b8015610aec5780601f10610ac157610100808354040283529160200191610aec565b820191906000526020600020905b815481529060010190602001808311610acf57829003601f168201915b50505091835250506002820154602082015260038201546001600160a01b03166040820152600482018054606090920191610b2690612093565b80601f0160208091040260200160405190810160405280929190818152602001828054610b5290612093565b8015610b9f5780601f10610b7457610100808354040283529160200191610b9f565b820191906000526020600020905b815481529060010190602001808311610b8257829003601f168201915b5050509183525050600582015460209091019060ff166003811115610bc657610bc6611e0b565b6003811115610bd757610bd7611e0b565b8152602001600682018054610beb90612093565b80601f0160208091040260200160405190810160405280929190818152602001828054610c1790612093565b8015610c645780601f10610c3957610100808354040283529160200191610c64565b820191906000526020600020905b815481529060010190602001808311610c4757829003601f168201915b5050505050815260200160078201548152602001600882015481525050905080602001518160400151826060015183608001518460a001518560c001518660e00151876101000151995099509950995099509950995099505050919395975091939597565b81516020818401810180516004825292820191850191909120919052805482908110610cf457600080fd5b90600052602060002001600091509150508054610d1090612093565b80601f0160208091040260200160405190810160405280929190818152602001828054610d3c90612093565b8015610d895780601f10610d5e57610100808354040283529160200191610d89565b820191906000526020600020905b815481529060010190602001808311610d6c57829003601f168201915b505050505081565b600154604051632474521560e21b81527f6c8c74ca89d51c51762b487723cebc763285d515b4c41b9a0e751475ee4bab2160048201523360248201526101009091046001600160a01b0316906391d1485490604401602060405180830381865afa158015610e03573d6000803e3d6000fd5b505050506040513d601f19601f82011682018060405250810190610e279190612396565b610e735760405162461bcd60e51b815260206004820152601f60248201527f43616c6c6572206973206e6f74206120636f75727420617574686f72697479006044820152606401610534565b826000600382604051610e8691906120cd565b9081526040519081900360200190208054610ea090612093565b905011610ebf5760405162461bcd60e51b815260040161053490612366565b610ec7611728565b6000836003811115610edb57610edb611e0b565b03610f285760405162461bcd60e51b815260206004820152601d60248201527f43616e6e6f742072657665727420746f2046696c6564207374617475730000006044820152606401610534565b6000600385604051610f3a91906120cd565b908152604051908190036020019020600581015490915060ff16846003811115610f6657610f66611e0b565b816003811115610f7857610f78611e0b565b03610fc55760405162461bcd60e51b815260206004820152601c60248201527f4e657720737461747573206d75737420626520646966666572656e74000000006044820152606401610534565b60058201805486919060ff19166001836003811115610fe657610fe6611e0b565b02179055508351156110025760068201611000858261220b565b505b426008830155600285600381111561101c5761101c611e0b565b14806110395750600385600381111561103757611037611e0b565b145b156110a557600254604051630420602f60e01b81526001600160a01b0390911690630420602f90611072906001868101916004016123b8565b600060405180830381600087803b15801561108c57600080fd5b505af11580156110a0573d6000803e3d6000fd5b505050505b7f1ac16a1dc89278bcd7f9f34132f5e1ef22748cb8bc5cb12c0956fc4eb1f4e0e686828787426040516110dc95949392919061244d565b60405180910390a1505050505050565b60606004826040516110fe91906120cd565b9081526020016040518091039020805480602002602001604051908101604052809291908181526020016000905b828210156104b357838290600052602060002001805461114b90612093565b80601f016020809104026020016040519081016040528092919081815260200182805461117790612093565b80156111c45780601f10611199576101008083540402835291602001916111c4565b820191906000526020600020905b8154815290600101906020018083116111a757829003601f168201915b50505050508152602001906001019061112c565b60006111e381611770565b6109486118b5565b6000918252602082815260408084206001600160a01b0393909316845291905290205460ff1690565b805160208183018101805160038252928201919093012091528054819061123a90612093565b80601f016020809104026020016040519081016040528092919081815260200182805461126690612093565b80156112b35780601f10611288576101008083540402835291602001916112b3565b820191906000526020600020905b81548152906001019060200180831161129657829003601f168201915b5050505050908060010180546112c890612093565b80601f01602080910402602001604051908101604052809291908181526020018280546112f490612093565b80156113415780601f1061131657610100808354040283529160200191611341565b820191906000526020600020905b81548152906001019060200180831161132457829003601f168201915b5050505060028301546003840154600485018054949592946001600160a01b0390921693509061137090612093565b80601f016020809104026020016040519081016040528092919081815260200182805461139c90612093565b80156113e95780601f106113be576101008083540402835291602001916113e9565b820191906000526020600020905b8154815290600101906020018083116113cc57829003601f168201915b5050506005840154600685018054949560ff90921694919350915061140d90612093565b80601f016020809104026020016040519081016040528092919081815260200182805461143990612093565b80156114865780601f1061145b57610100808354040283529160200191611486565b820191906000526020600020905b81548152906001019060200180831161146957829003601f168201915b5050505050908060070154908060080154905089565b6000828152602081905260409020600101546114b781611770565b6108b283836117fe565b60056020528160005260406000208181548110610cf457600080fd5b8160006003826040516114f091906120cd565b908152604051908190036020019020805461150a90612093565b9050116115295760405162461bcd60e51b815260040161053490612366565b611531611728565b600060038460405161154391906120cd565b9081526040519081900360200190206003810154909150336001600160a01b0390911614806116035750600154604051632474521560e21b81527f6c8c74ca89d51c51762b487723cebc763285d515b4c41b9a0e751475ee4bab2160048201523360248201526101009091046001600160a01b0316906391d1485490604401602060405180830381865afa1580156115df573d6000803e3d6000fd5b505050506040513d601f19601f820116820180604052508101906116039190612396565b61164f5760405162461bcd60e51b815260206004820152601e60248201527f4e6f7420617574686f72697a656420746f206164642065766964656e636500006044820152606401610534565b6002600582015460ff16600381111561166a5761166a611e0b565b1415801561169157506003600582015460ff16600381111561168e5761168e611e0b565b14155b6116d15760405162461bcd60e51b8152602060048201526011602482015270111a5cdc1d5d19481a5cc818db1bdcd959607a1b6044820152606401610534565b600481016116df848261220b565b5042600882018190556040517f807fc98948d0bbaf8e70a5d7820f1029c51e7eca73fb763b213a10a34addb20d9161171a91879187916124a3565b60405180910390a150505050565b60015460ff161561176e5760405162461bcd60e51b815260206004820152601060248201526f14185d5cd8589b194e881c185d5cd95960821b6044820152606401610534565b565b61094881336118f0565b61178482826111eb565b610931576000828152602081815260408083206001600160a01b03851684529091529020805460ff191660011790556117ba3390565b6001600160a01b0316816001600160a01b0316837f2f8788117e7eff1d82e926ec794901d17c78024a50270940304540a733656f0d60405160405180910390a45050565b61180882826111eb565b15610931576000828152602081815260408083206001600160a01b0385168085529252808320805460ff1916905551339285917ff6391f5c32d9c69d2a47ea670b442974b53935d1edc7fd64eb21e047a839171b9190a45050565b61186b611949565b6001805460ff191690557f5db9ee0a495bf2e6ff9c91a7834c1ba4fdd244a5e8aa4e537bd38aeae4b073aa335b6040516001600160a01b03909116815260200160405180910390a1565b6118bd611728565b6001805460ff1916811790557f62e78cea01bee320cd4e420270b5ea74000d11b0c9f74754ebdbfc544b05a25833611898565b6118fa82826111eb565b6109315761190781611992565b6119128360206119a4565b6040516020016119239291906124d9565b60408051601f198184030181529082905262461bcd60e51b825261053491600401611efd565b60015460ff1661176e5760405162461bcd60e51b815260206004820152601460248201527314185d5cd8589b194e881b9bdd081c185d5cd95960621b6044820152606401610534565b60606103cc6001600160a01b03831660145b606060006119b3836002612564565b6119be90600261257b565b67ffffffffffffffff8111156119d6576119d6611c3c565b6040519080825280601f01601f191660200182016040528015611a00576020820181803683370190505b509050600360fc1b81600081518110611a1b57611a1b61258e565b60200101906001600160f81b031916908160001a905350600f60fb1b81600181518110611a4a57611a4a61258e565b60200101906001600160f81b031916908160001a9053506000611a6e846002612564565b611a7990600161257b565b90505b6001811115611af1576f181899199a1a9b1b9c1cb0b131b232b360811b85600f1660108110611aad57611aad61258e565b1a60f81b828281518110611ac357611ac361258e565b60200101906001600160f81b031916908160001a90535060049490941c93611aea816125a4565b9050611a7c565b508315611b405760405162461bcd60e51b815260206004820181905260248201527f537472696e67733a20686578206c656e67746820696e73756666696369656e746044820152606401610534565b9392505050565b600060208284031215611b5957600080fd5b81356001600160e01b031981168114611b4057600080fd5b600060208284031215611b8357600080fd5b5035919050565b60005b83811015611ba5578181015183820152602001611b8d565b50506000910152565b60008151808452611bc6816020860160208601611b8a565b601f01601f19169290920160200192915050565b6000602080830181845280855180835260408601915060408160051b870101925083870160005b82811015611c2f57603f19888603018452611c1d858351611bae565b94509285019290850190600101611c01565b5092979650505050505050565b634e487b7160e01b600052604160045260246000fd5b604051601f8201601f1916810167ffffffffffffffff81118282101715611c7b57611c7b611c3c565b604052919050565b600067ffffffffffffffff821115611c9d57611c9d611c3c565b50601f01601f191660200190565b600082601f830112611cbc57600080fd5b8135611ccf611cca82611c83565b611c52565b818152846020838601011115611ce457600080fd5b816020850160208301376000918101602001919091529392505050565b600080600060608486031215611d1657600080fd5b833567ffffffffffffffff80821115611d2e57600080fd5b611d3a87838801611cab565b94506020860135915080821115611d5057600080fd5b611d5c87838801611cab565b93506040860135915080821115611d7257600080fd5b50611d7f86828701611cab565b9150509250925092565b6001600160a01b038116811461094857600080fd5b60008060408385031215611db157600080fd5b823591506020830135611dc381611d89565b809150509250929050565b600060208284031215611de057600080fd5b813567ffffffffffffffff811115611df757600080fd5b611e0384828501611cab565b949350505050565b634e487b7160e01b600052602160045260246000fd5b6004811061094857634e487b7160e01b600052602160045260246000fd5b6000610100808352611e538184018c611bae565b602084018b90526001600160a01b038a16604085015283810360608501529050611e7d8189611bae565b9050611e8887611e21565b86608084015282810360a0840152611ea08187611bae565b60c0840195909552505060e001529695505050505050565b60008060408385031215611ecb57600080fd5b823567ffffffffffffffff811115611ee257600080fd5b611eee85828601611cab565b95602094909401359450505050565b602081526000611b406020830184611bae565b6004811061094857600080fd5b600080600060608486031215611f3257600080fd5b833567ffffffffffffffff80821115611f4a57600080fd5b611f5687838801611cab565b945060208601359150611f6882611f10565b90925060408501359080821115611d7257600080fd5b6000610120808352611f928184018d611bae565b90508281036020840152611fa6818c611bae565b604084018b90526001600160a01b038a16606085015283810360808501529050611fd08189611bae565b9050611fdb87611e21565b8660a084015282810360c0840152611ff38187611bae565b60e084019590955250506101000152979650505050505050565b6000806040838503121561202057600080fd5b50508035926020909101359150565b6000806040838503121561204257600080fd5b823567ffffffffffffffff8082111561205a57600080fd5b61206686838701611cab565b9350602085013591508082111561207c57600080fd5b5061208985828601611cab565b9150509250929050565b600181811c908216806120a757607f821691505b6020821081036120c757634e487b7160e01b600052602260045260246000fd5b50919050565b600082516120df818460208701611b8a565b9190910192915050565b80516120f481611f10565b919050565b600080600080600080600060e0888a03121561211457600080fd5b87519650602088015161212681611d89565b604089015190965067ffffffffffffffff81111561214357600080fd5b8801601f81018a1361215457600080fd5b8051612162611cca82611c83565b8181528b602083850101111561217757600080fd5b612188826020830160208601611b8a565b809750505050606088015193506121a1608089016120e9565b925060a0880151915060c0880151905092959891949750929550565b601f8211156108b257600081815260208120601f850160051c810160208610156121e45750805b601f850160051c820191505b81811015612203578281556001016121f0565b505050505050565b815167ffffffffffffffff81111561222557612225611c3c565b612239816122338454612093565b846121bd565b602080601f83116001811461226e57600084156122565750858301515b600019600386901b1c1916600185901b178555612203565b600085815260208120601f198616915b8281101561229d5788860151825594840194600190910190840161227e565b50858210156122bb5787850151600019600388901b60f8161c191681555b5050505050600190811b01905550565b6122d481611e21565b9052565b6040815260006122eb6040830185611bae565b90506122f683611e21565b8260208301529392505050565b60c08152600061231660c0830189611bae565b82810360208401526123288189611bae565b604084018890526001600160a01b0387166060850152838103608085015290506123528186611bae565b9150508260a0830152979650505050505050565b602080825260169082015275111a5cdc1d5d1948191bd95cc81b9bdd08195e1a5cdd60521b604082015260600190565b6000602082840312156123a857600080fd5b81518015158114611b4057600080fd5b6040815260008084546123ca81612093565b80604086015260606001808416600081146123ec576001811461240657612437565b60ff1985168884015283151560051b880183019550612437565b8960005260208060002060005b8681101561242e5781548b8201870152908401908201612413565b8a018501975050505b505050505080915050611b4060208301846122cb565b60a08152600061246060a0830188611bae565b61246987611e21565b86602084015261247886611e21565b85604084015282810360608401526124908186611bae565b9150508260808301529695505050505050565b6060815260006124b66060830186611bae565b82810360208401526124c88186611bae565b915050826040830152949350505050565b7f416363657373436f6e74726f6c3a206163636f756e7420000000000000000000815260008351612511816017850160208801611b8a565b7001034b99036b4b9b9b4b733903937b6329607d1b6017918401918201528351612542816028840160208801611b8a565b01602801949350505050565b634e487b7160e01b600052601160045260246000fd5b80820281158282048414176103cc576103cc61254e565b808201808211156103cc576103cc61254e565b634e487b7160e01b600052603260045260246000fd5b6000816125b3576125b361254e565b50600019019056fea26469706673582212207fef6b8341c44a1868949530471c207ed4d363b838e66aaddb85362135ddb38a64736f6c63430008140033",
  "linkReferences": {},
  "deployedLinkReferences": {}
}