{"contracts/UserRegistry.sol":{"UserRegistry":{"abi":[{"inputs":[],"stateMutability":"nonpayable","type":"constructor"},{"anonymous":false,"inputs":[{"indexed":false,"internalType":"address","name":"account","type":"address"}],"name":"Paused","type":"event"},{"anonymous":false,"inputs":[{"indexed":true,"internalType":"bytes32","name":"role","type":"bytes32"},{"indexed":true,"internalType":"bytes32","name":"previousAdminRole","type":"bytes32"},{"indexed":true,"internalType":"bytes32","name":"newAdminRole","type":"bytes32"}],"name":"RoleAdminChanged","type":"event"},{"anonymous":false,"inputs":[{"indexed":true,"internalType":"bytes32","name":"role","type":"bytes32"},{"indexed":true,"internalType":"address","name":"account","type":"address"},{"indexed":true,"internalType":"address","name":"sender","type":"address"}],"name":"RoleGranted","type":"event"},{"anonymous":false,"inputs":[{"indexed":false,"internalType":"string","name":"userId","type":"string"},{"indexed":false,"internalType":"address","name":"walletAddress","type":"address"},{"indexed":false,"internalType":"bytes32","name":"role","type":"bytes32"},{"indexed":false,"internalType":"uint256","name":"timestamp","type":"uint256"}],"name":"RoleGranted","type":"event"},{"anonymous":false,"inputs":[{"indexed":true,"internalType":"bytes32","name":"role","type":"bytes32"},{"indexed":true,"internalType":"address","name":"account","type":"address"},{"indexed":true,"internalType":"address","name":"sender","type":"address"}],"name":"RoleRevoked","type":"event"},{"anonymous":false,"inputs":[{"indexed":false,"internalType":"string","name":"userId","type":"string"},{"indexed":false,"internalType":"address","name":"walletAddress","type":"address"},{"indexed":false,"internalType":"bytes32","name":"role","type":"bytes32"},{"indexed":false,"internalType":"uint256","name":"timestamp","type":"uint256"}],"name":"RoleRevoked","type":"event"},{"anonymous":false,"inputs":[{"indexed":false,"internalType":"address","name":"account","type":"address"}],"name":"Unpaused","type":"event"},{"anonymous":false,"inputs":[{"indexed":false,"internalType":"string","name":"userId","type":"string"},{"indexed":false,"internalType":"address","name":"walletAddress","type":"address"},{"indexed":false,"internalType":"uint256","name":"timestamp","type":"uint256"}],"name":"UserRegistered","type":"event"},{"anonymous":false,"inputs":[{"indexed":false,"internalType":"string","name":"userId","type":"string"},{"indexed":false,"internalType":"address","name":"walletAddress","type":"address"},{"indexed":false,"internalType":"bool","name":"isActive","type":"bool"},{"indexed":false,"internalType":"uint256","name":"timestamp","type":"uint256"}],"name":"UserStatusChanged","type":"event"},{"inputs":[],"name":"ADMIN_ROLE","outputs":[{"internalType":"bytes32","name":"","type":"bytes32"}],"stateMutability":"view","type":"function"},{"inputs":[],"name":"AUDITOR_ROLE","outputs":[{"internalType":"bytes32","name":"","type":"bytes32"}],"stateMutability":"view","type":"function"},{"inputs":[],"name":"COURT_AUTHORITY_ROLE","outputs":[{"internalType":"bytes32","name":"","type":"bytes32"}],"stateMutability":"view","type":"function"},{"inputs":[],"name":"DEFAULT_ADMIN_ROLE","outputs":[{"internalType":"bytes32","name":"","type":"bytes32"}],"stateMutability":"view","type":"function"},{"inputs":[],"name":"REGISTRAR_ROLE","outputs":[{"internalType":"bytes32","name":"","type":"bytes32"}],"stateMutability":"view","type":"function"},{"inputs":[],"name":"SURVEYOR_ROLE","outputs":[{"internalType":"bytes32","name":"","type":"bytes32"}],"stateMutability":"view","type":"function"},{"inputs":[{"internalType":"string","name":"userId","type":"string"},{"internalType":"bytes32","name":"role","type":"bytes32"}],"name":"assignRole","outputs":[],"stateMutability":"nonpayable","type":"function"},{"inputs":[{"internalType":"string","name":"userId","type":"string"}],"name":"deactivateUser","outputs":[],"stateMutability":"nonpayable","type":"function"},{"inputs":[{"internalType":"bytes32","name":"role","type":"bytes32"}],"name":"getRoleAdmin","outputs":[{"internalType":"bytes32","name":"","type":"bytes32"}],"stateMutability":"view","type":"function"},{"inputs":[{"internalType":"string","name":"userId","type":"string"}],"name":"getUserById","outputs":[{"internalType":"address","name":"walletAddress","type":"address"},{"internalType":"bool","name":"isActive","type":"bool"},{"internalType":"uint256","name":"registeredAt","type":"uint256"},{"internalType":"uint256","name":"lastModified","type":"uint256"}],"stateMutability":"view","type":"function"},{"inputs":[{"internalType":"address","name":"wallet","type":"address"}],"name":"getUserByWallet","outputs":[{"internalType":"string","name":"userId","type":"string"},{"internalType":"bool","name":"isActive","type":"bool"},{"internalType":"uint256","name":"registeredAt","type":"uint256"},{"internalType":"uint256","name":"lastModified","type":"uint256"}],"stateMutability":"view","type":"function"},{"inputs":[{"internalType":"bytes32","name":"role","type":"bytes32"},{"internalType":"address","name":"account","type":"address"}],"name":"grantRole","outputs":[],"stateMutability":"nonpayable","type":"function"},{"inputs":[{"internalType":"bytes32","name":"role","type":"bytes32"},{"internalType":"address","name":"account","type":"address"}],"name":"hasRole","outputs":[{"internalType":"bool","name":"","type":"bool"}],"stateMutability":"view","type":"function"},{"inputs":[],"name":"pause","outputs":[],"stateMutability":"nonpayable","type":"function"},{"inputs":[],"name":"paused","outputs":[{"internalType":"bool","name":"","type":"bool"}],"stateMutability":"view","type":"function"},{"inputs":[{"internalType":"string","name":"userId","type":"string"}],"name":"reactivateUser","outputs":[],"stateMutability":"nonpayable","type":"function"},{"inputs":[{"internalType":"string","name":"userId","type":"string"},{"internalType":"address","name":"walletAddress","type":"address"}],"name":"registerUser","outputs":[],"stateMutability":"nonpayable","type":"function"},{"inputs":[{"internalType":"bytes32","name":"role","type":"bytes32"},{"internalType":"address","name":"account","type":"address"}],"name":"renounceRole","outputs":[],"stateMutability":"nonpayable","type":"function"},{"inputs":[{"internalType":"bytes32","name":"role","type":"bytes32"},{"internalType":"address","name":"account","type":"address"}],"name":"revokeRole","outputs":[],"stateMutability":"nonpayable","type":"function"},{"inputs":[{"internalType":"string","name":"userId","type":"string"},{"internalType":"bytes32","name":"role","type":"bytes32"}],"name":"revokeRole","outputs":[],"stateMutability":"nonpayable","type":"function"},{"inputs":[{"internalType":"bytes4","name":"interfaceId","type":"bytes4"}],"name":"supportsInterface","outputs":[{"internalType":"bool","name":"","type":"bool"}],"stateMutability":"view","type":"function"},{"inputs":[],"name":"unpause","outputs":[],"stateMutability":"nonpayable","type":"function"},{"inputs":[{"internalType":"string","name":"","type":"string"}],"name":"userIdToWallet","outputs":[{"internalType":"address","name":"","type":"address"}],"stateMutability":"view","type":"function"},{"inputs":[{"internalType":"string","name":"","type":"string"}],"name":"usersById","outputs":[{"internalType":"string","name":"userId","type":"string"},{"internalType":"address","name":"walletAddress","type":"address"},{"internalType":"bool","name":"isActive","type":"bool"},{"internalType":"uint256","name":"registeredAt","type":"uint256"},{"internalType":"uint256","name":"lastModified","type":"uint256"}],"stateMutability":"view","type":"function"},{"inputs":[{"internalType":"address","name":"","type":"address"}],"name":"usersByWallet","outputs":[{"internalType":"string","name":"userId","type":"string"},{"internalType":"address","name":"walletAddress","type":"address"},{"internalType":"bool","name":"isActive","type":"bool"},{"internalType":"uint256","name":"registeredAt","type":"uint256"},{"internalType":"uint256","name":"lastModified","type":"uint256"}],"stateMutability":"view","type":"function"},{"inputs":[{"internalType":"address","name":"","type":"address"}],"name":"walletToUserId","outputs":[{"internalType":"string","name":"","type":"string"}],"stateMutability":"view","type":"function"}],"evm":{"bytecode":{"linkReferences":{},"object":"60806040523480156200001157600080fd5b506001805460ff19169055620000296000336200005b565b620000557fa49807205ce4d355092ef5a8a18f56e8913cf4a201fbe287825b095693c21775336200005b565b620000fc565b6000828152602081815260408083206001600160a01b038516845290915290205460ff16620000f8576000828152602081815260408083206001600160a01b03851684529091529020805460ff19166001179055620000b73390565b6001600160a01b0316816001600160a01b0316837f2f8788117e7eff1d82e926ec794901d17c78024a50270940304540a733656f0d60405160405180910390a45b5050565b611d92806200010c6000396000f3fe608060405234801561001057600080fd5b506004361061018e5760003560e01c806375b238fc116100de578063be47e02811610097578063d421e33811610071578063d421e338146103fc578063d547741f14610423578063d6872a3e14610436578063f68e95531461044957600080fd5b8063be47e028146103af578063c03a6aa2146103d6578063d1a9b2da146103e957600080fd5b806375b238fc146103185780637ae24c871461032d5780638456cb591461037957806386fc52861461038157806391d1485414610394578063a217fddf146103a757600080fd5b8063379f8fc21161014b5780634bb54384116101255780634bb54384146102b35780635c975abb146102d35780635d053f0d146102de5780636e1d616e146102f157600080fd5b8063379f8fc21461024b5780633b0328be146102885780633f4ba83a146102ab57600080fd5b806301ffc9a7146101935780630e54b872146101bb578063248a9ca3146101d05780632f2ff15d1461020157806332e831651461021457806336568abe14610238575b600080fd5b6101a66101a1366004611749565b610470565b60405190151581526020015b60405180910390f35b6101ce6101c9366004611832565b6104a7565b005b6101f36101de366004611880565b60009081526020819052604090206001015490565b6040519081526020016101b2565b6101ce61020f366004611899565b6107fe565b6102276102223660046118bc565b610828565b6040516101b2959493929190611949565b6101ce610246366004611899565b6108f9565b61025e6102593660046118bc565b610977565b604080516001600160a01b03909516855292151560208501529183015260608201526080016101b2565b61029b610296366004611989565b610adb565b6040516101b294939291906119a4565b6101ce610c43565b6102c66102c1366004611989565b610c59565b6040516101b291906119d3565b60015460ff166101a6565b6101ce6102ec3660046119e6565b610cf3565b6101f37f59a1c48e5837ad7a7f3dcedcbe129bf3249ec4fbf651fd4f5e2600ead39fe2f581565b6101f3600080516020611d3d83398151915281565b61036161033b3660046118bc565b80516020818301810180516005825292820191909301209152546001600160a01b031681565b6040516001600160a01b0390911681526020016101b2565b6101ce610e5d565b6101ce61038f3660046118bc565b610e70565b6101a66103a2366004611899565b610ff0565b6101f3600081565b6101f37f2876b6444ca73956040d49b0d48b2a7c03b6b34daa638a812177f0309da79c7e81565b6101ce6103e43660046118bc565b611019565b6102276103f7366004611989565b611181565b6101f37f6c8c74ca89d51c51762b487723cebc763285d515b4c41b9a0e751475ee4bab2181565b6101ce610431366004611899565b61119c565b6101ce6104443660046119e6565b6111c1565b6101f37fedcc084d3dcd65a1f7f23c65c46722faca6953d28e43150a467cf43e5c30923881565b60006001600160e01b03198216637965db0b60e01b14806104a157506301ffc9a760e01b6001600160e01b03198316145b92915050565b600080516020611d3d8339815191526104bf8161132a565b6001600160a01b038216600090815260026020526040902080548391906104e590611a2b565b1590506105395760405162461bcd60e51b815260206004820152601960248201527f57616c6c657420616c726561647920726567697374657265640000000000000060448201526064015b60405180910390fd5b610541611334565b60008451116105855760405162461bcd60e51b815260206004820152601060248201526f155cd95c881251081c995c5d5a5c995960821b6044820152606401610530565b6001600160a01b0383166105d45760405162461bcd60e51b8152602060048201526016602482015275496e76616c69642077616c6c6574206164647265737360501b6044820152606401610530565b6003846040516105e49190611a65565b90815260405190819003602001902080546105fe90611a2b565b1590506106465760405162461bcd60e51b81526020600482015260166024820152755573657220494420616c72656164792065786973747360501b6044820152606401610530565b6040805160a0810182528581526001600160a01b03851660208083018290526001838501524260608401819052608084015260009182526002905291909120815182919081906106969082611acf565b5060208201516001820180546040808601511515600160a01b026001600160a81b03199092166001600160a01b03909416939093171790556060830151600283015560809092015160039182015590518291906106f4908890611a65565b908152604051908190036020019020815181906107119082611acf565b506020828101516001830180546040808701511515600160a01b026001600160a81b03199092166001600160a01b03948516179190911790915560608501516002850155608090940151600390930192909255908616600090815260049091522061077c8682611acf565b508360058660405161078e9190611a65565b90815260405190819003602001812080546001600160a01b03939093166001600160a01b0319909316929092179091557fda4b066842833e7ab38c0f7ba442824b5eda00740d68ef015889812a792fc3ec906107ef90879087904290611b8f565b60405180910390a15050505050565b6000828152602081905260409020600101546108198161132a565b610823838361137c565b505050565b805160208183018101805160038252928201919093012091528054819061084e90611a2b565b80601f016020809104026020016040519081016040528092919081815260200182805461087a90611a2b565b80156108c75780601f1061089c576101008083540402835291602001916108c7565b820191906000526020600020905b8154815290600101906020018083116108aa57829003601f168201915b505050506001830154600284015460039094015492936001600160a01b03821693600160a01b90920460ff1692509085565b6001600160a01b03811633146109695760405162461bcd60e51b815260206004820152602f60248201527f416363657373436f6e74726f6c3a2063616e206f6e6c792072656e6f756e636560448201526e103937b632b9903337b91039b2b63360891b6064820152608401610530565b6109738282611400565b5050565b600080600080600060038660405161098f9190611a65565b90815260200160405180910390206040518060a00160405290816000820180546109b890611a2b565b80601f01602080910402602001604051908101604052809291908181526020018280546109e490611a2b565b8015610a315780601f10610a0657610100808354040283529160200191610a31565b820191906000526020600020905b815481529060010190602001808311610a1457829003601f168201915b505050918352505060018201546001600160a01b0381166020830152600160a01b900460ff161515604082015260028201546060820152600390910154608090910152805151909150610ab75760405162461bcd60e51b815260206004820152600e60248201526d155cd95c881b9bdd08199bdd5b9960921b6044820152606401610530565b80602001518160400151826060015183608001519450945094509450509193509193565b606060008060008060026000876001600160a01b03166001600160a01b031681526020019081526020016000206040518060a0016040529081600082018054610b2390611a2b565b80601f0160208091040260200160405190810160405280929190818152602001828054610b4f90611a2b565b8015610b9c5780601f10610b7157610100808354040283529160200191610b9c565b820191906000526020600020905b815481529060010190602001808311610b7f57829003601f168201915b505050918352505060018201546001600160a01b0381166020830152600160a01b900460ff161515604082015260028201546060820152600390910154608090910152805151909150610c225760405162461bcd60e51b815260206004820152600e60248201526d155cd95c881b9bdd08199bdd5b9960921b6044820152606401610530565b80516040820151606083015160809093015191989097509195509350915050565b6000610c4e8161132a565b610c56611465565b50565b60046020526000908152604090208054610c7290611a2b565b80601f0160208091040260200160405190810160405280929190818152602001828054610c9e90611a2b565b8015610ceb5780601f10610cc057610100808354040283529160200191610ceb565b820191906000526020600020905b815481529060010190602001808311610cce57829003601f168201915b505050505081565b600080516020611d3d833981519152610d0b8161132a565b826000600382604051610d1e9190611a65565b9081526040519081900360200190208054610d3890611a2b565b905011610d575760405162461bcd60e51b815260040161053090611bbd565b610d5f611334565b82610dac5760405162461bcd60e51b815260206004820181905260248201527f43616e6e6f742061737369676e2044454641554c545f41444d494e5f524f4c456044820152606401610530565b6000600585604051610dbe9190611a65565b908152604051908190036020019020546001600160a01b0316905080610e1e5760405162461bcd60e51b8152602060048201526015602482015274155cd95c881dd85b1b195d081b9bdd08199bdd5b99605a1b6044820152606401610530565b610e28848261137c565b7f24e41ea7a3e1156613d6401b8c1ef5fcaa360b9fd50f2195dfc76b493dca9f5c858286426040516107ef9493929190611bea565b6000610e688161132a565b610c566114b7565b600080516020611d3d833981519152610e888161132a565b816000600382604051610e9b9190611a65565b9081526040519081900360200190208054610eb590611a2b565b905011610ed45760405162461bcd60e51b815260040161053090611bbd565b610edc611334565b6000600384604051610eee9190611a65565b908152604051908190036020019020600181015490915060ff600160a01b9091041615610f535760405162461bcd60e51b81526020600482015260136024820152725573657220616c72656164792061637469766560681b6044820152606401610530565b6001818101805460ff60a01b19808216600160a01b90811784554260038088018290556001600160a01b039485166000908152600260205260408082208901805490961690941790945585548516845292829020909201829055925492517f2a9f8c26496d8bf7fc0143bbb4ad1d5ae8e3e6c85e02d5faf820c12f532d2cf194610fe2948a9416929091611c22565b60405180910390a150505050565b6000918252602082815260408084206001600160a01b0393909316845291905290205460ff1690565b600080516020611d3d8339815191526110318161132a565b8160006003826040516110449190611a65565b908152604051908190036020019020805461105e90611a2b565b90501161107d5760405162461bcd60e51b815260040161053090611bbd565b611085611334565b60006003846040516110979190611a65565b908152604051908190036020019020600181015490915060ff600160a01b909104166110fd5760405162461bcd60e51b81526020600482015260156024820152745573657220616c726561647920696e61637469766560581b6044820152606401610530565b6001808201805460ff60a01b1980821683554260038087018290556001600160a01b03938416600090815260026020526040808220909701805490941690935584548416835285832001819055925493517f2a9f8c26496d8bf7fc0143bbb4ad1d5ae8e3e6c85e02d5faf820c12f532d2cf194610fe2948a94919091169291611c22565b60026020526000908152604090208054819061084e90611a2b565b6000828152602081905260409020600101546111b78161132a565b6108238383611400565b600080516020611d3d8339815191526111d98161132a565b8260006003826040516111ec9190611a65565b908152604051908190036020019020805461120690611a2b565b9050116112255760405162461bcd60e51b815260040161053090611bbd565b61122d611334565b8261127a5760405162461bcd60e51b815260206004820181905260248201527f43616e6e6f74207265766f6b652044454641554c545f41444d494e5f524f4c456044820152606401610530565b600060058560405161128c9190611a65565b908152604051908190036020019020546001600160a01b03169050806112ec5760405162461bcd60e51b8152602060048201526015602482015274155cd95c881dd85b1b195d081b9bdd08199bdd5b99605a1b6044820152606401610530565b6112f68482611400565b7e50a9e1e070b5eaa22087a832ec441523d75bf8ef8320387776e1289ae0bfa5858286426040516107ef9493929190611bea565b610c5681336114f2565b60015460ff161561137a5760405162461bcd60e51b815260206004820152601060248201526f14185d5cd8589b194e881c185d5cd95960821b6044820152606401610530565b565b6113868282610ff0565b610973576000828152602081815260408083206001600160a01b03851684529091529020805460ff191660011790556113bc3390565b6001600160a01b0316816001600160a01b0316837f2f8788117e7eff1d82e926ec794901d17c78024a50270940304540a733656f0d60405160405180910390a45050565b61140a8282610ff0565b15610973576000828152602081815260408083206001600160a01b0385168085529252808320805460ff1916905551339285917ff6391f5c32d9c69d2a47ea670b442974b53935d1edc7fd64eb21e047a839171b9190a45050565b61146d61154b565b6001805460ff191690557f5db9ee0a495bf2e6ff9c91a7834c1ba4fdd244a5e8aa4e537bd38aeae4b073aa335b6040516001600160a01b03909116815260200160405180910390a1565b6114bf611334565b6001805460ff1916811790557f62e78cea01bee320cd4e420270b5ea74000d11b0c9f74754ebdbfc544b05a2583361149a565b6114fc8282610ff0565b6109735761150981611594565b6115148360206115a6565b604051602001611525929190611c5a565b60408051601f198184030181529082905262461bcd60e51b8252610530916004016119d3565b60015460ff1661137a5760405162461bcd60e51b815260206004820152601460248201527314185d5cd8589b194e881b9bdd081c185d5cd95960621b6044820152606401610530565b60606104a16001600160a01b03831660145b606060006115b5836002611ce5565b6115c0906002611cfc565b67ffffffffffffffff8111156115d8576115d8611773565b6040519080825280601f01601f191660200182016040528015611602576020820181803683370190505b509050600360fc1b8160008151811061161d5761161d611d0f565b60200101906001600160f81b031916908160001a905350600f60fb1b8160018151811061164c5761164c611d0f565b60200101906001600160f81b031916908160001a9053506000611670846002611ce5565b61167b906001611cfc565b90505b60018111156116f3576f181899199a1a9b1b9c1cb0b131b232b360811b85600f16601081106116af576116af611d0f565b1a60f81b8282815181106116c5576116c5611d0f565b60200101906001600160f81b031916908160001a90535060049490941c936116ec81611d25565b905061167e565b5083156117425760405162461bcd60e51b815260206004820181905260248201527f537472696e67733a20686578206c656e67746820696e73756666696369656e746044820152606401610530565b9392505050565b60006020828403121561175b57600080fd5b81356001600160e01b03198116811461174257600080fd5b634e487b7160e01b600052604160045260246000fd5b600082601f83011261179a57600080fd5b813567ffffffffffffffff808211156117b5576117b5611773565b604051601f8301601f19908116603f011681019082821181831017156117dd576117dd611773565b816040528381528660208588010111156117f657600080fd5b836020870160208301376000602085830101528094505050505092915050565b80356001600160a01b038116811461182d57600080fd5b919050565b6000806040838503121561184557600080fd5b823567ffffffffffffffff81111561185c57600080fd5b61186885828601611789565b92505061187760208401611816565b90509250929050565b60006020828403121561189257600080fd5b5035919050565b600080604083850312156118ac57600080fd5b8235915061187760208401611816565b6000602082840312156118ce57600080fd5b813567ffffffffffffffff8111156118e557600080fd5b6118f184828501611789565b949350505050565b60005b838110156119145781810151838201526020016118fc565b50506000910152565b600081518084526119358160208601602086016118f9565b601f01601f19169290920160200192915050565b60a08152600061195c60a083018861191d565b6001600160a01b039690961660208301525092151560408401526060830191909152608090910152919050565b60006020828403121561199b57600080fd5b61174282611816565b6080815260006119b7608083018761191d565b9415156020830152506040810192909252606090910152919050565b602081526000611742602083018461191d565b600080604083850312156119f957600080fd5b823567ffffffffffffffff811115611a1057600080fd5b611a1c85828601611789565b95602094909401359450505050565b600181811c90821680611a3f57607f821691505b602082108103611a5f57634e487b7160e01b600052602260045260246000fd5b50919050565b60008251611a778184602087016118f9565b9190910192915050565b601f82111561082357600081815260208120601f850160051c81016020861015611aa85750805b601f850160051c820191505b81811015611ac757828155600101611ab4565b505050505050565b815167ffffffffffffffff811115611ae957611ae9611773565b611afd81611af78454611a2b565b84611a81565b602080601f831160018114611b325760008415611b1a5750858301515b600019600386901b1c1916600185901b178555611ac7565b600085815260208120601f198616915b82811015611b6157888601518255948401946001909101908401611b42565b5085821015611b7f5787850151600019600388901b60f8161c191681555b5050505050600190811b01905550565b606081526000611ba2606083018661191d565b6001600160a01b039490941660208301525060400152919050565b602080825260139082015272155cd95c88191bd95cc81b9bdd08195e1a5cdd606a1b604082015260600190565b608081526000611bfd608083018761191d565b6001600160a01b03959095166020830152506040810192909252606090910152919050565b608081526000611c35608083018761191d565b6001600160a01b03959095166020830152509115156040830152606090910152919050565b7f416363657373436f6e74726f6c3a206163636f756e7420000000000000000000815260008351611c928160178501602088016118f9565b7001034b99036b4b9b9b4b733903937b6329607d1b6017918401918201528351611cc38160288401602088016118f9565b01602801949350505050565b634e487b7160e01b600052601160045260246000fd5b80820281158282048414176104a1576104a1611ccf565b808201808211156104a1576104a1611ccf565b634e487b7160e01b600052603260045260246000fd5b600081611d3457611d34611ccf565b50600019019056fea49807205ce4d355092ef5a8a18f56e8913cf4a201fbe287825b095693c21775a2646970667358221220929be7482773aa9f984c4ee9ff4e38eef01e441eae0cbfae03a597e40cd2cb6064736f6c63430008140033","opcodes":"PUSH1 0x80 PUSH1 0x40 MSTORE CALLVALUE DUP1 ISZERO PUSH3 0x11 JUMPI PUSH1 0x0 DUP1 REVERT JUMPDEST POP PUSH1 0x1 DUP1 SLOAD PUSH1 0xFF NOT AND SWAP1 SSTORE PUSH3 0x29 PUSH1 0x0 CALLER PUSH3 0x5B JUMP JUMPDEST PUSH3 0x55 PUSH32 0xA49807205CE4D355092EF5A8A18F56E8913CF4A201FBE287825B095693C21775 CALLER PUSH3 0x5B JUMP JUMPDEST PUSH3 0xFC JUMP JUMPDEST PUSH1 0x0 DUP3 DUP2 MSTORE PUSH1 0x20 DUP2 DUP2 MSTORE PUSH1 0x40 DUP1 DUP4 KECCAK256 PUSH1 0x1 PUSH1 0x1 PUSH1 0xA0 SHL SUB DUP6 AND DUP5 MSTORE SWAP1 SWAP2 MSTORE SWAP1 KECCAK256 SLOAD PUSH1 0xFF AND PUSH3 0xF8 JUMPI PUSH1 0x0 DUP3 DUP2 MSTORE PUSH1 0x20 DUP2 DUP2 MSTORE PUSH1 0x40 DUP1 DUP4 KECCAK256 PUSH1 0x1 PUSH1 0x1 PUSH1 0xA0 SHL SUB DUP6 AND DUP5 MSTORE SWAP1 SWAP2 MSTORE SWAP1 KECCAK256 DUP1 SLOAD PUSH1 0xFF NOT AND PUSH1 0x1 OR SWAP1 SSTORE PUSH3 0xB7 CALLER SWAP1 JUMP JUMPDEST PUSH1 0x1 PUSH1 0x1 PUSH1 0xA0 SHL SUB AND DUP2 PUSH1 0x1 PUSH1 0x1 PUSH1 0xA0 SHL SUB AND DUP4 PUSH32 0x2F8788117E7EFF1D82E926EC794901D17C78024A50270940304540A733656F0D PUSH1 0x40 MLOAD PUSH1 0x40 MLOAD DUP1 SWAP2 SUB SWAP1 LOG4 JUMPDEST POP POP JUMP JUMPDEST PUSH2 0x1D92 DUP1 PUSH3 0x10C PUSH1 0x0 CODECOPY PUSH1 0x0 RETURN INVALID PUSH1 0x80 PUSH1 0x40 MSTORE CALLVALUE DUP1 ISZERO PUSH2 0x10 JUMPI PUSH1 0x0 DUP1 REVERT JUMPDEST POP PUSH1 0x4 CALLDATASIZE LT PUSH2 0x18E JUMPI PUSH1 0x0 CALLDATALOAD PUSH1 0xE0 SHR DUP1 PUSH4 0x75B238FC GT PUSH2 0xDE JUMPI DUP1 PUSH4 0xBE47E028 GT PUSH2 0x97 JUMPI DUP1 PUSH4 0xD421E338 GT PUSH2 0x71 JUMPI DUP1 PUSH4 0xD421E338 EQ PUSH2 0x3FC JUMPI DUP1 PUSH4 0xD547741F EQ PUSH2 0x423 JUMPI DUP1 PUSH4 0xD6872A3E EQ PUSH2 0x436 JUMPI DUP1 PUSH4 0xF68E9553 EQ PUSH2 0x449 JUMPI PUSH1 0x0 DUP1 REVERT JUMPDEST DUP1 PUSH4 0xBE47E028 EQ PUSH2 0x3AF JUMPI DUP1 PUSH4 0xC03A6AA2 EQ PUSH2 0x3D6 JUMPI DUP1 PUSH4 0xD1A9B2DA EQ PUSH2 0x3E9 JUMPI PUSH1 0x0 DUP1 REVERT JUMPDEST DUP1 PUSH4 0x75B238FC EQ PUSH2 0x318 JUMPI DUP1 PUSH4 0x7AE24C87 EQ PUSH2 0x32D JUMPI DUP1 PUSH4 0x8456CB59 EQ PUSH2 0x379 JUMPI DUP1 PUSH4 0x86FC5286 EQ PUSH2 0x381 JUMPI DUP1 PUSH4 0x91D14854 EQ PUSH2 0x394 JUMPI DUP1 PUSH4 0xA217FDDF EQ PUSH2 0x3A7 JUMPI PUSH1 0x0 DUP1 REVERT JUMPDEST DUP1 PUSH4 0x379F8FC2 GT PUSH2 0x14B JUMPI DUP1 PUSH4 0x4BB54384 GT PUSH2 0x125 JUMPI DUP1 PUSH4 0x4BB54384 EQ PUSH2 0x2B3 JUMPI DUP1 PUSH4 0x5C975ABB EQ PUSH2 0x2D3 JUMPI DUP1 PUSH4 0x5D053F0D EQ PUSH2 0x2DE JUMPI DUP1 PUSH4 0x6E1D616E EQ PUSH2 0x2F1 JUMPI PUSH1 0x0 DUP1 REVERT JUMPDEST DUP1 PUSH4 0x379F8FC2 EQ PUSH2 0x24B JUMPI DUP1 PUSH4 0x3B0328BE EQ PUSH2 0x288 JUMPI DUP1 PUSH4 0x3F4BA83A EQ PUSH2 0x2AB JUMPI PUSH1 0x0 DUP1 REVERT JUMPDEST DUP1 PUSH4 0x1FFC9A7 EQ PUSH2 0x193 JUMPI DUP1 PUSH4 0xE54B872 EQ PUSH2 0x1BB JUMPI DUP1 PUSH4 0x248A9CA3 EQ PUSH2 0x1D0 JUMPI DUP1 PUSH4 0x2F2FF15D EQ PUSH2 0x201 JUMPI DUP1 PUSH4 0x32E83165 EQ PUSH2 0x214 JUMPI DUP1 PUSH4 0x36568ABE EQ PUSH2 0x238 JUMPI JUMPDEST PUSH1 0x0 DUP1 REVERT JUMPDEST PUSH2 0x1A6 PUSH2 0x1A1 CALLDATASIZE PUSH1 0x4 PUSH2 0x1749 JUMP JUMPDEST PUSH2 0x470 JUMP JUMPDEST PUSH1 0x40 MLOAD SWAP1 ISZERO ISZERO DUP2 MSTORE PUSH1 0x20 ADD JUMPDEST PUSH1 0x40 MLOAD DUP1 SWAP2 SUB SWAP1 RETURN JUMPDEST PUSH2 0x1CE PUSH2 0x1C9 CALLDATASIZE PUSH1 0x4 PUSH2 0x1832 JUMP JUMPDEST PUSH2 0x4A7 JUMP JUMPDEST STOP JUMPDEST PUSH2 0x1F3 PUSH2 0x1DE CALLDATASIZE PUSH1 0x4 PUSH2 0x1880 JUMP JUMPDEST PUSH1 0x0 SWAP1 DUP2 MSTORE PUSH1 0x20 DUP2 SWAP1 MSTORE PUSH1 0x40 SWAP1 KECCAK256 PUSH1 0x1 ADD SLOAD SWAP1 JUMP JUMPDEST PUSH1 0x40 MLOAD SWAP1 DUP2 MSTORE PUSH1 0x20 ADD PUSH2 0x1B2 JUMP JUMPDEST PUSH2 0x1CE PUSH2 0x20F CALLDATASIZE PUSH1 0x4 PUSH2 0x1899 JUMP JUMPDEST PUSH2 0x7FE JUMP JUMPDEST PUSH2 0x227 PUSH2 0x222 CALLDATASIZE PUSH1 0x4 PUSH2 0x18BC JUMP JUMPDEST PUSH2 0x828 JUMP JUMPDEST PUSH1 0x40 MLOAD PUSH2 0x1B2 SWAP6 SWAP5 SWAP4 SWAP3 SWAP2 SWAP1 PUSH2 0x1949 JUMP JUMPDEST PUSH2 0x1CE PUSH2 0x246 CALLDATASIZE PUSH1 0x4 PUSH2 0x1899 JUMP JUMPDEST PUSH2 0x8F9 JUMP JUMPDEST PUSH2 0x25E PUSH2 0x259 CALLDATASIZE PUSH1 0x4 PUSH2 0x18BC JUMP JUMPDEST PUSH2 0x977 JUMP JUMPDEST PUSH1 0x40 DUP1 MLOAD PUSH1 0x1 PUSH1 0x1 PUSH1 0xA0 SHL SUB SWAP1 SWAP6 AND DUP6 MSTORE SWAP3 ISZERO ISZERO PUSH1 0x20 DUP6 ADD MSTORE SWAP2 DUP4 ADD MSTORE PUSH1 0x60 DUP3 ADD MSTORE PUSH1 0x80 ADD PUSH2 0x1B2 JUMP JUMPDEST PUSH2 0x29B PUSH2 0x296 CALLDATASIZE PUSH1 0x4 PUSH2 0x1989 JUMP JUMPDEST PUSH2 0xADB JUMP JUMPDEST PUSH1 0x40 MLOAD PUSH2 0x1B2 SWAP5 SWAP4 SWAP3 SWAP2 SWAP1 PUSH2 0x19A4 JUMP JUMPDEST PUSH2 0x1CE PUSH2 0xC43 JUMP JUMPDEST PUSH2 0x2C6 PUSH2 0x2C1 CALLDATASIZE PUSH1 0x4 PUSH2 0x1989 JUMP JUMPDEST PUSH2 0xC59 JUMP JUMPDEST PUSH1 0x40 MLOAD PUSH2 0x1B2 SWAP2 SWAP1 PUSH2 0x19D3 JUMP JUMPDEST PUSH1 0x1 SLOAD PUSH1 0xFF AND PUSH2 0x1A6 JUMP JUMPDEST PUSH2 0x1CE PUSH2 0x2EC CALLDATASIZE PUSH1 0x4 PUSH2 0x19E6 JUMP JUMPDEST PUSH2 0xCF3 JUMP JUMPDEST PUSH2 0x1F3 PUSH32 0x59A1C48E5837AD7A7F3DCEDCBE129BF3249EC4FBF651FD4F5E2600EAD39FE2F5 DUP2 JUMP JUMPDEST PUSH2 0x1F3 PUSH1 0x0 DUP1 MLOAD PUSH1 0x20 PUSH2 0x1D3D DUP4 CODECOPY DUP2 MLOAD SWAP2 MSTORE DUP2 JUMP JUMPDEST PUSH2 0x361 PUSH2 0x33B CALLDATASIZE PUSH1 0x4 PUSH2 0x18BC JUMP JUMPDEST DUP1 MLOAD PUSH1 0x20 DUP2 DUP4 ADD DUP2 ADD DUP1 MLOAD PUSH1 0x5 DUP3 MSTORE SWAP3 DUP3 ADD SWAP2 SWAP1 SWAP4 ADD KECCAK256 SWAP2 MSTORE SLOAD PUSH1 0x1 PUSH1 0x1 PUSH1 0xA0 SHL SUB AND DUP2 JUMP JUMPDEST PUSH1 0x40 MLOAD PUSH1 0x1 PUSH1 0x1 PUSH1 0xA0 SHL SUB SWAP1 SWAP2 AND DUP2 MSTORE PUSH1 0x20 ADD PUSH2 0x1B2 JUMP JUMPDEST PUSH2 0x1CE PUSH2 0xE5D JUMP JUMPDEST PUSH2 0x1CE PUSH2 0x38F CALLDATASIZE PUSH1 0x4 PUSH2 0x18BC JUMP JUMPDEST PUSH2 0xE70 JUMP JUMPDEST PUSH2 0x1A6 PUSH2 0x3A2 CALLDATASIZE PUSH1 0x4 PUSH2 0x1899 JUMP JUMPDEST PUSH2 0xFF0 JUMP JUMPDEST PUSH2 0x1F3 PUSH1 0x0 DUP2 JUMP JUMPDEST PUSH2 0x1F3 PUSH32 0x2876B6444CA73956040D49B0D48B2A7C03B6B34DAA638A812177F0309DA79C7E DUP2 JUMP JUMPDEST PUSH2 0x1CE PUSH2 0x3E4 CALLDATASIZE PUSH1 0x4 PUSH2 0x18BC JUMP JUMPDEST PUSH2 0x1019 JUMP JUMPDEST PUSH2 0x227 PUSH2 0x3F7 CALLDATASIZE PUSH1 0x4 PUSH2 0x1989 JUMP JUMPDEST PUSH2 0x1181 JUMP JUMPDEST PUSH2 0x1F3 PUSH32 0x6C8C74CA89D51C51762B487723CEBC763285D515B4C41B9A0E751475EE4BAB21 DUP2 JUMP JUMPDEST PUSH2 0x1CE PUSH2 0x431 CALLDATASIZE PUSH1 0x4 PUSH2 0x1899 JUMP JUMPDEST PUSH2 0x119C JUMP JUMPDEST PUSH2 0x1CE PUSH2 0x444 CALLDATASIZE PUSH1 0x4 PUSH2 0x19E6 JUMP JUMPDEST PUSH2 0x11C1 JUMP JUMPDEST PUSH2 0x1F3 PUSH32 0xEDCC084D3DCD65A1F7F23C65C46722FACA6953D28E43150A467CF43E5C309238 DUP2 JUMP JUMPDEST PUSH1 0x0 PUSH1 0x1 PUSH1 0x1 PUSH1 0xE0 SHL SUB NOT DUP3 AND PUSH4 0x7965DB0B PUSH1 0xE0 SHL EQ DUP1 PUSH2 0x4A1 JUMPI POP PUSH4 0x1FFC9A7 PUSH1 0xE0 SHL PUSH1 0x1 PUSH1 0x1 PUSH1 0xE0 SHL SUB NOT DUP4 AND EQ JUMPDEST SWAP3 SWAP2 POP POP JUMP JUMPDEST PUSH1 0x0 DUP1 MLOAD PUSH1 0x20 PUSH2 0x1D3D DUP4 CODECOPY DUP2 MLOAD SWAP2 MSTORE PUSH2 0x4BF DUP2 PUSH2 0x132A JUMP JUMPDEST PUSH1 0x1 PUSH1 0x1 PUSH1 0xA0 SHL SUB DUP3 AND PUSH1 0x0 SWAP1 DUP2 MSTORE PUSH1 0x2 PUSH1 0x20 MSTORE PUSH1 0x40 SWAP1 KECCAK256 DUP1 SLOAD DUP4 SWAP2 SWAP1 PUSH2 0x4E5 SWAP1 PUSH2 0x1A2B JUMP JUMPDEST ISZERO SWAP1 POP PUSH2 0x539 JUMPI PUSH1 0x40 MLOAD PUSH3 0x461BCD PUSH1 0xE5 SHL DUP2 MSTORE PUSH1 0x20 PUSH1 0x4 DUP3 ADD MSTORE PUSH1 0x19 PUSH1 0x24 DUP3 ADD MSTORE PUSH32 0x57616C6C657420616C7265616479207265676973746572656400000000000000 PUSH1 0x44 DUP3 ADD MSTORE PUSH1 0x64 ADD JUMPDEST PUSH1 0x40 MLOAD DUP1 SWAP2 SUB SWAP1 REVERT JUMPDEST PUSH2 0x541 PUSH2 0x1334 JUMP JUMPDEST PUSH1 0x0 DUP5 MLOAD GT PUSH2 0x585 JUMPI PUSH1 0x40 MLOAD PUSH3 0x461BCD PUSH1 0xE5 SHL DUP2 MSTORE PUSH1 0x20 PUSH1 0x4 DUP3 ADD MSTORE PUSH1 0x10 PUSH1 0x24 DUP3 ADD MSTORE PUSH16 0x155CD95C881251081C995C5D5A5C9959 PUSH1 0x82 SHL PUSH1 0x44 DUP3 ADD MSTORE PUSH1 0x64 ADD PUSH2 0x530 JUMP JUMPDEST PUSH1 0x1 PUSH1 0x1 PUSH1 0xA0 SHL SUB DUP4 AND PUSH2 0x5D4 JUMPI PUSH1 0x40 MLOAD PUSH3 0x461BCD PUSH1 0xE5 SHL DUP2 MSTORE PUSH1 0x20 PUSH1 0x4 DUP3 ADD MSTORE PUSH1 0x16 PUSH1 0x24 DUP3 ADD MSTORE PUSH22 0x496E76616C69642077616C6C65742061646472657373 PUSH1 0x50 SHL PUSH1 0x44 DUP3 ADD MSTORE PUSH1 0x64 ADD PUSH2 0x530 JUMP JUMPDEST PUSH1 0x3 DUP5 PUSH1 0x40 MLOAD PUSH2 0x5E4 SWAP2 SWAP1 PUSH2 0x1A65 JUMP JUMPDEST SWAP1 DUP2 MSTORE PUSH1 0x40 MLOAD SWAP1 DUP2 SWAP1 SUB PUSH1 0x20 ADD SWAP1 KECCAK256 DUP1 SLOAD PUSH2 0x5FE SWAP1 PUSH2 0x1A2B JUMP JUMPDEST ISZERO SWAP1 POP PUSH2 0x646 JUMPI PUSH1 0x40 MLOAD PUSH3 0x461BCD PUSH1 0xE5 SHL DUP2 MSTORE PUSH1 0x20 PUSH1 0x4 DUP3 ADD MSTORE PUSH1 0x16 PUSH1 0x24 DUP3 ADD MSTORE PUSH22 0x5573657220494420616C726561647920657869737473 PUSH1 0x50 SHL PUSH1 0x44 DUP3 ADD MSTORE PUSH1 0x64 ADD PUSH2 0x530 JUMP JUMPDEST PUSH1 0x40 DUP1 MLOAD PUSH1 0xA0 DUP2 ADD DUP3 MSTORE DUP6 DUP2 MSTORE PUSH1 0x1 PUSH1 0x1 PUSH1 0xA0 SHL SUB DUP6 AND PUSH1 0x20 DUP1 DUP4 ADD DUP3 SWAP1 MSTORE PUSH1 0x1 DUP4 DUP6 ADD MSTORE TIMESTAMP PUSH1 0x60 DUP5 ADD DUP2 SWAP1 MSTORE PUSH1 0x80 DUP5 ADD MSTORE PUSH1 0x0 SWAP2 DUP3 MSTORE PUSH1 0x2 SWAP1 MSTORE SWAP2 SWAP1 SWAP2 KECCAK256 DUP2 MLOAD DUP3 SWAP2 SWAP1 DUP2 SWAP1 PUSH2 0x696 SWAP1 DUP3 PUSH2 0x1ACF JUMP JUMPDEST POP PUSH1 0x20 DUP3 ADD MLOAD PUSH1 0x1 DUP3 ADD DUP1 SLOAD PUSH1 0x40 DUP1 DUP7 ADD MLOAD ISZERO ISZERO PUSH1 0x1 PUSH1 0xA0 SHL MUL PUSH1 0x1 PUSH1 0x1 PUSH1 0xA8 SHL SUB NOT SWAP1 SWAP3 AND PUSH1 0x1 PUSH1 0x1 PUSH1 0xA0 SHL SUB SWAP1 SWAP5 AND SWAP4 SWAP1 SWAP4 OR OR SWAP1 SSTORE PUSH1 0x60 DUP4 ADD MLOAD PUSH1 0x2 DUP4 ADD SSTORE PUSH1 0x80 SWAP1 SWAP3 ADD MLOAD PUSH1 0x3 SWAP2 DUP3 ADD SSTORE SWAP1 MLOAD DUP3 SWAP2 SWAP1 PUSH2 0x6F4 SWAP1 DUP9 SWAP1 PUSH2 0x1A65 JUMP JUMPDEST SWAP1 DUP2 MSTORE PUSH1 0x40 MLOAD SWAP1 DUP2 SWAP1 SUB PUSH1 0x20 ADD SWAP1 KECCAK256 DUP2 MLOAD DUP2 SWAP1 PUSH2 0x711 SWAP1 DUP3 PUSH2 0x1ACF JUMP JUMPDEST POP PUSH1 0x20 DUP3 DUP2 ADD MLOAD PUSH1 0x1 DUP4 ADD DUP1 SLOAD PUSH1 0x40 DUP1 DUP8 ADD MLOAD ISZERO ISZERO PUSH1 0x1 PUSH1 0xA0 SHL MUL PUSH1 0x1 PUSH1 0x1 PUSH1 0xA8 SHL SUB NOT SWAP1 SWAP3 AND PUSH1 0x1 PUSH1 0x1 PUSH1 0xA0 SHL SUB SWAP5 DUP6 AND OR SWAP2 SWAP1 SWAP2 OR SWAP1 SWAP2 SSTORE PUSH1 0x60 DUP6 ADD MLOAD PUSH1 0x2 DUP6 ADD SSTORE PUSH1 0x80 SWAP1 SWAP5 ADD MLOAD PUSH1 0x3 SWAP1 SWAP4 ADD SWAP3 SWAP1 SWAP3 SSTORE SWAP1 DUP7 AND PUSH1 0x0 SWAP1 DUP2 MSTORE PUSH1 0x4 SWAP1 SWAP2 MSTORE KECCAK256 PUSH2 0x77C DUP7 DUP3 PUSH2 0x1ACF JUMP JUMPDEST POP DUP4 PUSH1 0x5 DUP7 PUSH1 0x40 MLOAD PUSH2 0x78E SWAP2 SWAP1 PUSH2 0x1A65 JUMP JUMPDEST SWAP1 DUP2 MSTORE PUSH1 0x40 MLOAD SWAP1 DUP2 SWAP1 SUB PUSH1 0x20 ADD DUP2 KECCAK256 DUP1 SLOAD PUSH1 0x1 PUSH1 0x1 PUSH1 0xA0 SHL SUB SWAP4 SWAP1 SWAP4 AND PUSH1 0x1 PUSH1 0x1 PUSH1 0xA0 SHL SUB NOT SWAP1 SWAP4 AND SWAP3 SWAP1 SWAP3 OR SWAP1 SWAP2 SSTORE PUSH32 0xDA4B066842833E7AB38C0F7BA442824B5EDA00740D68EF015889812A792FC3EC SWAP1 PUSH2 0x7EF SWAP1 DUP8 SWAP1 DUP8 SWAP1 TIMESTAMP SWAP1 PUSH2 0x1B8F JUMP JUMPDEST PUSH1 0x40 MLOAD DUP1 SWAP2 SUB SWAP1 LOG1 POP POP POP POP POP JUMP JUMPDEST PUSH1 0x0 DUP3 DUP2 MSTORE PUSH1 0x20 DUP2 SWAP1 MSTORE PUSH1 0x40 SWAP1 KECCAK256 PUSH1 0x1 ADD SLOAD PUSH2 0x819 DUP2 PUSH2 0x132A JUMP JUMPDEST PUSH2 0x823 DUP4 DUP4 PUSH2 0x137C JUMP JUMPDEST POP POP POP JUMP JUMPDEST DUP1 MLOAD PUSH1 0x20 DUP2 DUP4 ADD DUP2 ADD DUP1 MLOAD PUSH1 0x3 DUP3 MSTORE SWAP3 DUP3 ADD SWAP2 SWAP1 SWAP4 ADD KECCAK256 SWAP2 MSTORE DUP1 SLOAD DUP2 SWAP1 PUSH2 0x84E SWAP1 PUSH2 0x1A2B JUMP JUMPDEST DUP1 PUSH1 0x1F ADD PUSH1 0x20 DUP1 SWAP2 DIV MUL PUSH1 0x20 ADD PUSH1 0x40 MLOAD SWAP1 DUP2 ADD PUSH1 0x40 MSTORE DUP1 SWAP3 SWAP2 SWAP1 DUP2 DUP2 MSTORE PUSH1 0x20 ADD DUP3 DUP1 SLOAD PUSH2 0x87A SWAP1 PUSH2 0x1A2B JUMP JUMPDEST DUP1 ISZERO PUSH2 0x8C7 JUMPI DUP1 PUSH1 0x1F LT PUSH2 0x89C JUMPI PUSH2 0x100 DUP1 DUP4 SLOAD DIV MUL DUP4 MSTORE SWAP2 PUSH1 0x20 ADD SWAP2 PUSH2 0x8C7 JUMP JUMPDEST DUP3 ADD SWAP2 SWAP1 PUSH1 0x0 MSTORE PUSH1 0x20 PUSH1 0x0 KECCAK256 SWAP1 JUMPDEST DUP2 SLOAD DUP2 MSTORE SWAP1 PUSH1 0x1 ADD SWAP1 PUSH1 0x20 ADD DUP1 DUP4 GT PUSH2 0x8AA JUMPI DUP3 SWAP1 SUB PUSH1 0x1F AND DUP3 ADD SWAP2 JUMPDEST POP POP POP POP PUSH1 0x1 DUP4 ADD SLOAD PUSH1 0x2 DUP5 ADD SLOAD PUSH1 0x3 SWAP1 SWAP5 ADD SLOAD SWAP3 SWAP4 PUSH1 0x1 PUSH1 0x1 PUSH1 0xA0 SHL SUB DUP3 AND SWAP4 PUSH1 0x1 PUSH1 0xA0 SHL SWAP1 SWAP3 DIV PUSH1 0xFF AND SWAP3 POP SWAP1 DUP6 JUMP JUMPDEST PUSH1 0x1 PUSH1 0x1 PUSH1 0xA0 SHL SUB DUP2 AND CALLER EQ PUSH2 0x969 JUMPI PUSH1 0x40 MLOAD PUSH3 0x461BCD PUSH1 0xE5 SHL DUP2 MSTORE PUSH1 0x20 PUSH1 0x4 DUP3 ADD MSTORE PUSH1 0x2F PUSH1 0x24 DUP3 ADD MSTORE PUSH32 0x416363657373436F6E74726F6C3A2063616E206F6E6C792072656E6F756E6365 PUSH1 0x44 DUP3 ADD MSTORE PUSH15 0x103937B632B9903337B91039B2B633 PUSH1 0x89 SHL PUSH1 0x64 DUP3 ADD MSTORE PUSH1 0x84 ADD PUSH2 0x530 JUMP JUMPDEST PUSH2 0x973 DUP3 DUP3 PUSH2 0x1400 JUMP JUMPDEST POP POP JUMP JUMPDEST PUSH1 0x0 DUP1 PUSH1 0x0 DUP1 PUSH1 0x0 PUSH1 0x3 DUP7 PUSH1 0x40 MLOAD PUSH2 0x98F SWAP2 SWAP1 PUSH2 0x1A65 JUMP JUMPDEST SWAP1 DUP2 MSTORE PUSH1 0x20 ADD PUSH1 0x40 MLOAD DUP1 SWAP2 SUB SWAP1 KECCAK256 PUSH1 0x40 MLOAD DUP1 PUSH1 0xA0 ADD PUSH1 0x40 MSTORE SWAP1 DUP2 PUSH1 0x0 DUP3 ADD DUP1 SLOAD PUSH2 0x9B8 SWAP1 PUSH2 0x1A2B JUMP JUMPDEST DUP1 PUSH1 0x1F ADD PUSH1 0x20 DUP1 SWAP2 DIV MUL PUSH1 0x20 ADD PUSH1 0x40 MLOAD SWAP1 DUP2 ADD PUSH1 0x40 MSTORE DUP1 SWAP3 SWAP2 SWAP1 DUP2 DUP2 MSTORE PUSH1 0x20 ADD DUP3 DUP1 SLOAD PUSH2 0x9E4 SWAP1 PUSH2 0x1A2B JUMP JUMPDEST DUP1 ISZERO PUSH2 0xA31 JUMPI DUP1 PUSH1 0x1F LT PUSH2 0xA06 JUMPI PUSH2 0x100 DUP1 DUP4 SLOAD DIV MUL DUP4 MSTORE SWAP2 PUSH1 0x20 ADD SWAP2 PUSH2 0xA31 JUMP JUMPDEST DUP3 ADD SWAP2 SWAP1 PUSH1 0x0 MSTORE PUSH1 0x20 PUSH1 0x0 KECCAK256 SWAP1 JUMPDEST DUP2 SLOAD DUP2 MSTORE SWAP1 PUSH1 0x1 ADD SWAP1 PUSH1 0x20 ADD DUP1 DUP4 GT PUSH2 0xA14 JUMPI DUP3 SWAP1 SUB PUSH1 0x1F AND DUP3 ADD SWAP2 JUMPDEST POP POP POP SWAP2 DUP4 MSTORE POP POP PUSH1 0x1 DUP3 ADD SLOAD PUSH1 0x1 PUSH1 0x1 PUSH1 0xA0 SHL SUB DUP2 AND PUSH1 0x20 DUP4 ADD MSTORE PUSH1 0x1 PUSH1 0xA0 SHL SWAP1 DIV PUSH1 0xFF AND ISZERO ISZERO PUSH1 0x40 DUP3 ADD MSTORE PUSH1 0x2 DUP3 ADD SLOAD PUSH1 0x60 DUP3 ADD MSTORE PUSH1 0x3 SWAP1 SWAP2 ADD SLOAD PUSH1 0x80 SWAP1 SWAP2 ADD MSTORE DUP1 MLOAD MLOAD SWAP1 SWAP2 POP PUSH2 0xAB7 JUMPI PUSH1 0x40 MLOAD PUSH3 0x461BCD PUSH1 0xE5 SHL DUP2 MSTORE PUSH1 0x20 PUSH1 0x4 DUP3 ADD MSTORE PUSH1 0xE PUSH1 0x24 DUP3 ADD MSTORE PUSH14 0x155CD95C881B9BDD08199BDD5B99 PUSH1 0x92 SHL PUSH1 0x44 DUP3 ADD MSTORE PUSH1 0x64 ADD PUSH2 0x530 JUMP JUMPDEST DUP1 PUSH1 0x20 ADD MLOAD DUP2 PUSH1 0x40 ADD MLOAD DUP3 PUSH1 0x60 ADD MLOAD DUP4 PUSH1 0x80 ADD MLOAD SWAP5 POP SWAP5 POP SWAP5 POP SWAP5 POP POP SWAP2 SWAP4 POP SWAP2 SWAP4 JUMP JUMPDEST PUSH1 0x60 PUSH1 0x0 DUP1 PUSH1 0x0 DUP1 PUSH1 0x2 PUSH1 0x0 DUP8 PUSH1 0x1 PUSH1 0x1 PUSH1 0xA0 SHL SUB AND PUSH1 0x1 PUSH1 0x1 PUSH1 0xA0 SHL SUB AND DUP2 MSTORE PUSH1 0x20 ADD SWAP1 DUP2 MSTORE PUSH1 0x20 ADD PUSH1 0x0 KECCAK256 PUSH1 0x40 MLOAD DUP1 PUSH1 0xA0 ADD PUSH1 0x40 MSTORE SWAP1 DUP2 PUSH1 0x0 DUP3 ADD DUP1 SLOAD PUSH2 0xB23 SWAP1 PUSH2 0x1A2B JUMP JUMPDEST DUP1 PUSH1 0x1F ADD PUSH1 0x20 DUP1 SWAP2 DIV MUL PUSH1 0x20 ADD PUSH1 0x40 MLOAD SWAP1 DUP2 ADD PUSH1 0x40 MSTORE DUP1 SWAP3 SWAP2 SWAP1 DUP2 DUP2 MSTORE PUSH1 0x20 ADD DUP3 DUP1 SLOAD PUSH2 0xB4F SWAP1 PUSH2 0x1A2B JUMP JUMPDEST DUP1 ISZERO PUSH2 0xB9C JUMPI DUP1 PUSH1 0x1F LT PUSH2 0xB71 JUMPI PUSH2 0x100 DUP1 DUP4 SLOAD DIV MUL DUP4 MSTORE SWAP2 PUSH1 0x20 ADD SWAP2 PUSH2 0xB9C JUMP JUMPDEST DUP3 ADD SWAP2 SWAP1 PUSH1 0x0 MSTORE PUSH1 0x20 PUSH1 0x0 KECCAK256 SWAP1 JUMPDEST DUP2 SLOAD DUP2 MSTORE SWAP1 PUSH1 0x1 ADD SWAP1 PUSH1 0x20 ADD DUP1 DUP4 GT PUSH2 0xB7F JUMPI DUP3 SWAP1 SUB PUSH1 0x1F AND DUP3 ADD SWAP2 JUMPDEST POP POP POP SWAP2 DUP4 MSTORE POP POP PUSH1 0x1 DUP3 ADD SLOAD PUSH1 0x1 PUSH1 0x1 PUSH1 0xA0 SHL SUB DUP2 AND PUSH1 0x20 DUP4 ADD MSTORE PUSH1 0x1 PUSH1 0xA0 SHL SWAP1 DIV PUSH1 0xFF AND ISZERO ISZERO PUSH1 0x40 DUP3 ADD MSTORE PUSH1 0x2 DUP3 ADD SLOAD PUSH1 0x60 DUP3 ADD MSTORE PUSH1 0x3 SWAP1 SWAP2 ADD SLOAD PUSH1 0x80 SWAP1 SWAP2 ADD MSTORE DUP1 MLOAD MLOAD SWAP1 SWAP2 POP PUSH2 0xC22 JUMPI PUSH1 0x40 MLOAD PUSH3 0x461BCD PUSH1 0xE5 SHL DUP2 MSTORE PUSH1 0x20 PUSH1 0x4 DUP3 ADD MSTORE PUSH1 0xE PUSH1 0x24 DUP3 ADD MSTORE PUSH14 0x155CD95C881B9BDD08199BDD5B99 PUSH1 0x92 SHL PUSH1 0x44 DUP3 ADD MSTORE PUSH1 0x64 ADD PUSH2 0x530 JUMP JUMPDEST DUP1 MLOAD PUSH1 0x40 DUP3 ADD MLOAD PUSH1 0x60 DUP4 ADD MLOAD PUSH1 0x80 SWAP1 SWAP4 ADD MLOAD SWAP2 SWAP9 SWAP1 SWAP8 POP SWAP2 SWAP6 POP SWAP4 POP SWAP2 POP POP JUMP JUMPDEST PUSH1 0x0 PUSH2 0xC4E DUP2 PUSH2 0x132A JUMP JUMPDEST PUSH2 0xC56 PUSH2 0x1465 JUMP JUMPDEST POP JUMP JUMPDEST PUSH1 0x4 PUSH1 0x20 MSTORE PUSH1 0x0 SWAP1 DUP2 MSTORE PUSH1 0x40 SWAP1 KECCAK256 DUP1 SLOAD PUSH2 0xC72 SWAP1 PUSH2 0x1A2B JUMP JUMPDEST DUP1 PUSH1 0x1F ADD PUSH1 0x20 DUP1 SWAP2 DIV MUL PUSH1 0x20 ADD PUSH1 0x40 MLOAD SWAP1 DUP2 ADD PUSH1 0x40 MSTORE DUP1 SWAP3 SWAP2 SWAP1 DUP2 DUP2 MSTORE PUSH1 0x20 ADD DUP3 DUP1 SLOAD PUSH2 0xC9E SWAP1 PUSH2 0x1A2B JUMP JUMPDEST DUP1 ISZERO PUSH2 0xCEB JUMPI DUP1 PUSH1 0x1F LT PUSH2 0xCC0 JUMPI PUSH2 0x100 DUP1 DUP4 SLOAD DIV MUL DUP4 MSTORE SWAP2 PUSH1 0x20 ADD SWAP2 PUSH2 0xCEB JUMP JUMPDEST DUP3 ADD SWAP2 SWAP1 PUSH1 0x0 MSTORE PUSH1 0x20 PUSH1 0x0 KECCAK256 SWAP1 JUMPDEST DUP2 SLOAD DUP2 MSTORE SWAP1 PUSH1 0x1 ADD SWAP1 PUSH1 0x20 ADD DUP1 DUP4 GT PUSH2 0xCCE JUMPI DUP3 SWAP1 SUB PUSH1 0x1F AND DUP3 ADD SWAP2 JUMPDEST POP POP POP POP POP DUP2 JUMP JUMPDEST PUSH1 0x0 DUP1 MLOAD PUSH1 0x20 PUSH2 0x1D3D DUP4 CODECOPY DUP2 MLOAD SWAP2 MSTORE PUSH2 0xD0B DUP2 PUSH2 0x132A JUMP JUMPDEST DUP3 PUSH1 0x0 PUSH1 0x3 DUP3 PUSH1 0x40 MLOAD PUSH2 0xD1E SWAP2 SWAP1 PUSH2 0x1A65 JUMP JUMPDEST SWAP1 DUP2 MSTORE PUSH1 0x40 MLOAD SWAP1 DUP2 SWAP1 SUB PUSH1 0x20 ADD SWAP1 KECCAK256 DUP1 SLOAD PUSH2 0xD38 SWAP1 PUSH2 0x1A2B JUMP JUMPDEST SWAP1 POP GT PUSH2 0xD57 JUMPI PUSH1 0x40 MLOAD PUSH3 0x461BCD PUSH1 0xE5 SHL DUP2 MSTORE PUSH1 0x4 ADD PUSH2 0x530 SWAP1 PUSH2 0x1BBD JUMP JUMPDEST PUSH2 0xD5F PUSH2 0x1334 JUMP JUMPDEST DUP3 PUSH2 0xDAC JUMPI PUSH1 0x40 MLOAD PUSH3 0x461BCD PUSH1 0xE5 SHL DUP2 MSTORE PUSH1 0x20 PUSH1 0x4 DUP3 ADD DUP2 SWAP1 MSTORE PUSH1 0x24 DUP3 ADD MSTORE PUSH32 0x43616E6E6F742061737369676E2044454641554C545F41444D494E5F524F4C45 PUSH1 0x44 DUP3 ADD MSTORE PUSH1 0x64 ADD PUSH2 0x530 JUMP JUMPDEST PUSH1 0x0 PUSH1 0x5 DUP6 PUSH1 0x40 MLOAD PUSH2 0xDBE SWAP2 SWAP1 PUSH2 0x1A65 JUMP JUMPDEST SWAP1 DUP2 MSTORE PUSH1 0x40 MLOAD SWAP1 DUP2 SWAP1 SUB PUSH1 0x20 ADD SWAP1 KECCAK256 SLOAD PUSH1 0x1 PUSH1 0x1 PUSH1 0xA0 SHL SUB AND SWAP1 POP DUP1 PUSH2 0xE1E JUMPI PUSH1 0x40 MLOAD PUSH3 0x461BCD PUSH1 0xE5 SHL DUP2 MSTORE PUSH1 0x20 PUSH1 0x4 DUP3 ADD MSTORE PUSH1 0x15 PUSH1 0x24 DUP3 ADD MSTORE PUSH21 0x155CD95C881DD85B1B195D081B9BDD08199BDD5B99 PUSH1 0x5A SHL PUSH1 0x44 DUP3 ADD MSTORE PUSH1 0x64 ADD PUSH2 0x530 JUMP JUMPDEST PUSH2 0xE28 DUP5 DUP3 PUSH2 0x137C JUMP JUMPDEST PUSH32 0x24E41EA7A3E1156613D6401B8C1EF5FCAA360B9FD50F2195DFC76B493DCA9F5C DUP6 DUP3 DUP7 TIMESTAMP PUSH1 0x40 MLOAD PUSH2 0x7EF SWAP5 SWAP4 SWAP3 SWAP2 SWAP1 PUSH2 0x1BEA JUMP JUMPDEST PUSH1 0x0 PUSH2 0xE68 DUP2 PUSH2 0x132A JUMP JUMPDEST PUSH2 0xC56 PUSH2 0x14B7 JUMP JUMPDEST PUSH1 0x0 DUP1 MLOAD PUSH1 0x20 PUSH2 0x1D3D DUP4 CODECOPY DUP2 MLOAD SWAP2 MSTORE PUSH2 0xE88 DUP2 PUSH2 0x132A JUMP JUMPDEST DUP2 PUSH1 0x0 PUSH1 0x3 DUP3 PUSH1 0x40 MLOAD PUSH2 0xE9B SWAP2 SWAP1 PUSH2 0x1A65 JUMP JUMPDEST SWAP1 DUP2 MSTORE PUSH1 0x40 MLOAD SWAP1 DUP2 SWAP1 SUB PUSH1 0x20 ADD SWAP1 KECCAK256 DUP1 SLOAD PUSH2 0xEB5 SWAP1 PUSH2 0x1A2B JUMP JUMPDEST SWAP1 POP GT PUSH2 0xED4 JUMPI PUSH1 0x40 MLOAD PUSH3 0x461BCD PUSH1 0xE5 SHL DUP2 MSTORE PUSH1 0x4 ADD PUSH2 0x530 SWAP1 PUSH2 0x1BBD JUMP JUMPDEST PUSH2 0xEDC PUSH2 0x1334 JUMP JUMPDEST PUSH1 0x0 PUSH1 0x3 DUP5 PUSH1 0x40 MLOAD PUSH2 0xEEE SWAP2 SWAP1 PUSH2 0x1A65 JUMP JUMPDEST SWAP1 DUP2 MSTORE PUSH1 0x40 MLOAD SWAP1 DUP2 SWAP1 SUB PUSH1 0x20 ADD SWAP1 KECCAK256 PUSH1 0x1 DUP2 ADD SLOAD SWAP1 SWAP2 POP PUSH1 0xFF PUSH1 0x1 PUSH1 0xA0 SHL SWAP1 SWAP2 DIV AND ISZERO PUSH2 0xF53 JUMPI PUSH1 0x40 MLOAD PUSH3 0x461BCD PUSH1 0xE5 SHL DUP2 MSTORE PUSH1 0x20 PUSH1 0x4 DUP3 ADD MSTORE PUSH1 0x13 PUSH1 0x24 DUP3 ADD MSTORE PUSH19 0x5573657220616C726561647920616374697665 PUSH1 0x68 SHL PUSH1 0x44 DUP3 ADD MSTORE PUSH1 0x64 ADD PUSH2 0x530 JUMP JUMPDEST PUSH1 0x1 DUP2 DUP2 ADD DUP1 SLOAD PUSH1 0xFF PUSH1 0xA0 SHL NOT DUP1 DUP3 AND PUSH1 0x1 PUSH1 0xA0 SHL SWAP1 DUP2 OR DUP5 SSTORE TIMESTAMP PUSH1 0x3 DUP1 DUP9 ADD DUP3 SWAP1 SSTORE PUSH1 0x1 PUSH1 0x1 PUSH1 0xA0 SHL SUB SWAP5 DUP6 AND PUSH1 0x0 SWAP1 DUP2 MSTORE PUSH1 0x2 PUSH1 0x20 MSTORE PUSH1 0x40 DUP1 DUP3 KECCAK256 DUP10 ADD DUP1 SLOAD SWAP1 SWAP7 AND SWAP1 SWAP5 OR SWAP1 SWAP5 SSTORE DUP6 SLOAD DUP6 AND DUP5 MSTORE SWAP3 DUP3 SWAP1 KECCAK256 SWAP1 SWAP3 ADD DUP3 SWAP1 SSTORE SWAP3 SLOAD SWAP3 MLOAD PUSH32 0x2A9F8C26496D8BF7FC0143BBB4AD1D5AE8E3E6C85E02D5FAF820C12F532D2CF1 SWAP5 PUSH2 0xFE2 SWAP5 DUP11 SWAP5 AND SWAP3 SWAP1 SWAP2 PUSH2 0x1C22 JUMP JUMPDEST PUSH1 0x40 MLOAD DUP1 SWAP2 SUB SWAP1 LOG1 POP POP POP POP JUMP JUMPDEST PUSH1 0x0 SWAP2 DUP3 MSTORE PUSH1 0x20 DUP3 DUP2 MSTORE PUSH1 0x40 DUP1 DUP5 KECCAK256 PUSH1 0x1 PUSH1 0x1 PUSH1 0xA0 SHL SUB SWAP4 SWAP1 SWAP4 AND DUP5 MSTORE SWAP2 SWAP1 MSTORE SWAP1 KECCAK256 SLOAD PUSH1 0xFF AND SWAP1 JUMP JUMPDEST PUSH1 0x0 DUP1 MLOAD PUSH1 0x20 PUSH2 0x1D3D DUP4 CODECOPY DUP2 MLOAD SWAP2 MSTORE PUSH2 0x1031 DUP2 PUSH2 0x132A JUMP JUMPDEST DUP2 PUSH1 0x0 PUSH1 0x3 DUP3 PUSH1 0x40 MLOAD PUSH2 0x1044 SWAP2 SWAP1 PUSH2 0x1A65 JUMP JUMPDEST SWAP1 DUP2 MSTORE PUSH1 0x40 MLOAD SWAP1 DUP2 SWAP1 SUB PUSH1 0x20 ADD SWAP1 KECCAK256 DUP1 SLOAD PUSH2 0x105E SWAP1 PUSH2 0x1A2B JUMP JUMPDEST SWAP1 POP GT PUSH2 0x107D JUMPI PUSH1 0x40 MLOAD PUSH3 0x461BCD PUSH1 0xE5 SHL DUP2 MSTORE PUSH1 0x4 ADD PUSH2 0x530 SWAP1 PUSH2 0x1BBD JUMP JUMPDEST PUSH2 0x1085 PUSH2 0x1334 JUMP JUMPDEST PUSH1 0x0 PUSH1 0x3 DUP5 PUSH1 0x40 MLOAD PUSH2 0x1097 SWAP2 SWAP1 PUSH2 0x1A65 JUMP JUMPDEST SWAP1 DUP2 MSTORE PUSH1 0x40 MLOAD SWAP1 DUP2 SWAP1 SUB PUSH1 0x20 ADD SWAP1 KECCAK256 PUSH1 0x1 DUP2 ADD SLOAD SWAP1 SWAP2 POP PUSH1 0xFF PUSH1 0x1 PUSH1 0xA0 SHL SWAP1 SWAP2 DIV AND PUSH2 0x10FD JUMPI PUSH1 0x40 MLOAD PUSH3 0x461BCD PUSH1 0xE5 SHL DUP2 MSTORE PUSH1 0x20 PUSH1 0x4 DUP3 ADD MSTORE PUSH1 0x15 PUSH1 0x24 DUP3 ADD MSTORE PUSH21 0x5573657220616C726561647920696E616374697665 PUSH1 0x58 SHL PUSH1 0x44 DUP3 ADD MSTORE PUSH1 0x64 ADD PUSH2 0x530 JUMP JUMPDEST PUSH1 0x1 DUP1 DUP3 ADD DUP1 SLOAD PUSH1 0xFF PUSH1 0xA0 SHL NOT DUP1 DUP3 AND DUP4 SSTORE TIMESTAMP PUSH1 0x3 DUP1 DUP8 ADD DUP3 SWAP1 SSTORE PUSH1 0x1 PUSH1 0x1 PUSH1 0xA0 SHL SUB SWAP4 DUP5 AND PUSH1 0x0 SWAP1 DUP2 MSTORE PUSH1 0x2 PUSH1 0x20 MSTORE PUSH1 0x40 DUP1 DUP3 KECCAK256 SWAP1 SWAP8 ADD DUP1 SLOAD SWAP1 SWAP5 AND SWAP1 SWAP4 SSTORE DUP5 SLOAD DUP5 AND DUP4 MSTORE DUP6 DUP4 KECCAK256 ADD DUP2 SWAP1 SSTORE SWAP3 SLOAD SWAP4 MLOAD PUSH32 0x2A9F8C26496D8BF7FC0143BBB4AD1D5AE8E3E6C85E02D5FAF820C12F532D2CF1 SWAP5 PUSH2 0xFE2 SWAP5 DUP11 SWAP5 SWAP2 SWAP1 SWAP2 AND SWAP3 SWAP2 PUSH2 0x1C22 JUMP JUMPDEST PUSH1 0x2 PUSH1 0x20 MSTORE PUSH1 0x0 SWAP1 DUP2 MSTORE PUSH1 0x40 SWAP1 KECCAK256 DUP1 SLOAD DUP2 SWAP1 PUSH2 0x84E SWAP1 PUSH2 0x1A2B JUMP JUMPDEST PUSH1 0x0 DUP3 DUP2 MSTORE PUSH1 0x20 DUP2 SWAP1 MSTORE PUSH1 0x40 SWAP1 KECCAK256 PUSH1 0x1 ADD SLOAD PUSH2 0x11B7 DUP2 PUSH2 0x132A JUMP JUMPDEST PUSH2 0x823 DUP4 DUP4 PUSH2 0x1400 JUMP JUMPDEST PUSH1 0x0 DUP1 MLOAD PUSH1 0x20 PUSH2 0x1D3D DUP4 CODECOPY DUP2 MLOAD SWAP2 MSTORE PUSH2 0x11D9 DUP2 PUSH2 0x132A JUMP JUMPDEST DUP3 PUSH1 0x0 PUSH1 0x3 DUP3 PUSH1 0x40 MLOAD PUSH2 0x11EC SWAP2 SWAP1 PUSH2 0x1A65 JUMP JUMPDEST SWAP1 DUP2 MSTORE PUSH1 0x40 MLOAD SWAP1 DUP2 SWAP1 SUB PUSH1 0x20 ADD SWAP1 KECCAK256 DUP1 SLOAD PUSH2 0x1206 SWAP1 PUSH2 0x1A2B JUMP JUMPDEST SWAP1 POP GT PUSH2 0x1225 JUMPI PUSH1 0x40 MLOAD PUSH3 0x461BCD PUSH1 0xE5 SHL DUP2 MSTORE PUSH1 0x4 ADD PUSH2 0x530 SWAP1 PUSH2 0x1BBD JUMP JUMPDEST PUSH2 0x122D PUSH2 0x1334 JUMP JUMPDEST DUP3 PUSH2 0x127A JUMPI PUSH1 0x40 MLOAD PUSH3 0x461BCD PUSH1 0xE5 SHL DUP2 MSTORE PUSH1 0x20 PUSH1 0x4 DUP3 ADD DUP2 SWAP1 MSTORE PUSH1 0x24 DUP3 ADD MSTORE PUSH32 0x43616E6E6F74207265766F6B652044454641554C545F41444D494E5F524F4C45 PUSH1 0x44 DUP3 ADD MSTORE PUSH1 0x64 ADD PUSH2 0x530 JUMP JUMPDEST PUSH1 0x0 PUSH1 0x5 DUP6 PUSH1 0x40 MLOAD PUSH2 0x128C SWAP2 SWAP1 PUSH2 0x1A65 JUMP JUMPDEST SWAP1 DUP2 MSTORE PUSH1 0x40 MLOAD SWAP1 DUP2 SWAP1 SUB PUSH1 0x20 ADD SWAP1 KECCAK256 SLOAD PUSH1 0x1 PUSH1 0x1 PUSH1 0xA0 SHL SUB AND SWAP1 POP DUP1 PUSH2 0x12EC JUMPI PUSH1 0x40 MLOAD PUSH3 0x461BCD PUSH1 0xE5 SHL DUP2 MSTORE PUSH1 0x20 PUSH1 0x4 DUP3 ADD MSTORE PUSH1 0x15 PUSH1 0x24 DUP3 ADD MSTORE PUSH21 0x155CD95C881DD85B1B195D081B9BDD08199BDD5B99 PUSH1 0x5A SHL PUSH1 0x44 DUP3 ADD MSTORE PUSH1 0x64 ADD PUSH2 0x530 JUMP JUMPDEST PUSH2 0x12F6 DUP5 DUP3 PUSH2 0x1400 JUMP JUMPDEST PUSH31 0x50A9E1E070B5EAA22087A832EC441523D75BF8EF8320387776E1289AE0BFA5 DUP6 DUP3 DUP7 TIMESTAMP PUSH1 0x40 MLOAD PUSH2 0x7EF SWAP5 SWAP4 SWAP3 SWAP2 SWAP1 PUSH2 0x1BEA JUMP JUMPDEST PUSH2 0xC56 DUP2 CALLER PUSH2 0x14F2 JUMP JUMPDEST PUSH1 0x1 SLOAD PUSH1 0xFF AND ISZERO PUSH2 0x137A JUMPI PUSH1 0x40 MLOAD PUSH3 0x461BCD PUSH1 0xE5 SHL DUP2 MSTORE PUSH1 0x20 PUSH1 0x4 DUP3 ADD MSTORE PUSH1 0x10 PUSH1 0x24 DUP3 ADD MSTORE PUSH16 0x14185D5CD8589B194E881C185D5CD959 PUSH1 0x82 SHL PUSH1 0x44 DUP3 ADD MSTORE PUSH1 0x64 ADD PUSH2 0x530 JUMP JUMPDEST JUMP JUMPDEST PUSH2 0x1386 DUP3 DUP3 PUSH2 0xFF0 JUMP JUMPDEST PUSH2 0x973 JUMPI PUSH1 0x0 DUP3 DUP2 MSTORE PUSH1 0x20 DUP2 DUP2 MSTORE PUSH1 0x40 DUP1 DUP4 KECCAK256 PUSH1 0x1 PUSH1 0x1 PUSH1 0xA0 SHL SUB DUP6 AND DUP5 MSTORE SWAP1 SWAP2 MSTORE SWAP1 KECCAK256 DUP1 SLOAD PUSH1 0xFF NOT AND PUSH1 0x1 OR SWAP1 SSTORE PUSH2 0x13BC CALLER SWAP1 JUMP JUMPDEST PUSH1 0x1 PUSH1 0x1 PUSH1 0xA0 SHL SUB AND DUP2 PUSH1 0x1 PUSH1 0x1 PUSH1 0xA0 SHL SUB AND DUP4 PUSH32 0x2F8788117E7EFF1D82E926EC794901D17C78024A50270940304540A733656F0D PUSH1 0x40 MLOAD PUSH1 0x40 MLOAD DUP1 SWAP2 SUB SWAP1 LOG4 POP POP JUMP JUMPDEST PUSH2 0x140A DUP3 DUP3 PUSH2 0xFF0 JUMP JUMPDEST ISZERO PUSH2 0x973 JUMPI PUSH1 0x0 DUP3 DUP2 MSTORE PUSH1 0x20 DUP2 DUP2 MSTORE PUSH1 0x40 DUP1 DUP4 KECCAK256 PUSH1 0x1 PUSH1 0x1 PUSH1 0xA0 SHL SUB DUP6 AND DUP1 DUP6 MSTORE SWAP3 MSTORE DUP1 DUP4 KECCAK256 DUP1 SLOAD PUSH1 0xFF NOT AND SWAP1 SSTORE MLOAD CALLER SWAP3 DUP6 SWAP2 PUSH32 0xF6391F5C32D9C69D2A47EA670B442974B53935D1EDC7FD64EB21E047A839171B SWAP2 SWAP1 LOG4 POP POP JUMP JUMPDEST PUSH2 0x146D PUSH2 0x154B JUMP JUMPDEST PUSH1 0x1 DUP1 SLOAD PUSH1 0xFF NOT AND SWAP1 SSTORE PUSH32 0x5DB9EE0A495BF2E6FF9C91A7834C1BA4FDD244A5E8AA4E537BD38AEAE4B073AA CALLER JUMPDEST PUSH1 0x40 MLOAD PUSH1 0x1 PUSH1 0x1 PUSH1 0xA0 SHL SUB SWAP1 SWAP2 AND DUP2 MSTORE PUSH1 0x20 ADD PUSH1 0x40 MLOAD DUP1 SWAP2 SUB SWAP1 LOG1 JUMP JUMPDEST PUSH2 0x14BF PUSH2 0x1334 JUMP JUMPDEST PUSH1 0x1 DUP1 SLOAD PUSH1 0xFF NOT AND DUP2 OR SWAP1 SSTORE PUSH32 0x62E78CEA01BEE320CD4E420270B5EA74000D11B0C9F74754EBDBFC544B05A258 CALLER PUSH2 0x149A JUMP JUMPDEST PUSH2 0x14FC DUP3 DUP3 PUSH2 0xFF0 JUMP JUMPDEST PUSH2 0x973 JUMPI PUSH2 0x1509 DUP2 PUSH2 0x1594 JUMP JUMPDEST PUSH2 0x1514 DUP4 PUSH1 0x20 PUSH2 0x15A6 JUMP JUMPDEST PUSH1 0x40 MLOAD PUSH1 0x20 ADD PUSH2 0x1525 SWAP3 SWAP2 SWAP1 PUSH2 0x1C5A JUMP JUMPDEST PUSH1 0x40 DUP1 MLOAD PUSH1 0x1F NOT DUP2 DUP5 SUB ADD DUP2 MSTORE SWAP1 DUP3 SWAP1 MSTORE PUSH3 0x461BCD PUSH1 0xE5 SHL DUP3 MSTORE PUSH2 0x530 SWAP2 PUSH1 0x4 ADD PUSH2 0x19D3 JUMP JUMPDEST PUSH1 0x1 SLOAD PUSH1 0xFF AND PUSH2 0x137A JUMPI PUSH1 0x40 MLOAD PUSH3 0x461BCD PUSH1 0xE5 SHL DUP2 MSTORE PUSH1 0x20 PUSH1 0x4 DUP3 ADD MSTORE PUSH1 0x14 PUSH1 0x24 DUP3 ADD MSTORE PUSH20 0x14185D5CD8589B194E881B9BDD081C185D5CD959 PUSH1 0x62 SHL PUSH1 0x44 DUP3 ADD MSTORE PUSH1 0x64 ADD PUSH2 0x530 JUMP JUMPDEST PUSH1 0x60 PUSH2 0x4A1 PUSH1 0x1 PUSH1 0x1 PUSH1 0xA0 SHL SUB DUP4 AND PUSH1 0x14 JUMPDEST PUSH1 0x60 PUSH1 0x0 PUSH2 0x15B5 DUP4 PUSH1 0x2 PUSH2 0x1CE5 JUMP JUMPDEST PUSH2 0x15C0 SWAP1 PUSH1 0x2 PUSH2 0x1CFC JUMP JUMPDEST PUSH8 0xFFFFFFFFFFFFFFFF DUP2 GT ISZERO PUSH2 0x15D8 JUMPI PUSH2 0x15D8 PUSH2 0x1773 JUMP JUMPDEST PUSH1 0x40 MLOAD SWAP1 DUP1 DUP3 MSTORE DUP1 PUSH1 0x1F ADD PUSH1 0x1F NOT AND PUSH1 0x20 ADD DUP3 ADD PUSH1 0x40 MSTORE DUP1 ISZERO PUSH2 0x1602 JUMPI PUSH1 0x20 DUP3 ADD DUP2 DUP1 CALLDATASIZE DUP4 CALLDATACOPY ADD SWAP1 POP JUMPDEST POP SWAP1 POP PUSH1 0x3 PUSH1 0xFC SHL DUP2 PUSH1 0x0 DUP2 MLOAD DUP2 LT PUSH2 0x161D JUMPI PUSH2 0x161D PUSH2 0x1D0F JUMP JUMPDEST PUSH1 0x20 ADD ADD SWAP1 PUSH1 0x1 PUSH1 0x1 PUSH1 0xF8 SHL SUB NOT AND SWAP1 DUP2 PUSH1 0x0 BYTE SWAP1 MSTORE8 POP PUSH1 0xF PUSH1 0xFB SHL DUP2 PUSH1 0x1 DUP2 MLOAD DUP2 LT PUSH2 0x164C JUMPI PUSH2 0x164C PUSH2 0x1D0F JUMP JUMPDEST PUSH1 0x20 ADD ADD SWAP1 PUSH1 0x1 PUSH1 0x1 PUSH1 0xF8 SHL SUB NOT AND SWAP1 DUP2 PUSH1 0x0 BYTE SWAP1 MSTORE8 POP PUSH1 0x0 PUSH2 0x1670 DUP5 PUSH1 0x2 PUSH2 0x1CE5 JUMP JUMPDEST PUSH2 0x167B SWAP1 PUSH1 0x1 PUSH2 0x1CFC JUMP JUMPDEST SWAP1 POP JUMPDEST PUSH1 0x1 DUP2 GT ISZERO PUSH2 0x16F3 JUMPI PUSH16 0x181899199A1A9B1B9C1CB0B131B232B3 PUSH1 0x81 SHL DUP6 PUSH1 0xF AND PUSH1 0x10 DUP2 LT PUSH2 0x16AF JUMPI PUSH2 0x16AF PUSH2 0x1D0F JUMP JUMPDEST BYTE PUSH1 0xF8 SHL DUP3 DUP3 DUP2 MLOAD DUP2 LT PUSH2 0x16C5 JUMPI PUSH2 0x16C5 PUSH2 0x1D0F JUMP JUMPDEST PUSH1 0x20 ADD ADD SWAP1 PUSH1 0x1 PUSH1 0x1 PUSH1 0xF8 SHL SUB NOT AND SWAP1 DUP2 PUSH1 0x0 BYTE SWAP1 MSTORE8 POP PUSH1 0x4 SWAP5 SWAP1 SWAP5 SHR SWAP4 PUSH2 0x16EC DUP2 PUSH2 0x1D25 JUMP JUMPDEST SWAP1 POP PUSH2 0x167E JUMP JUMPDEST POP DUP4 ISZERO PUSH2 0x1742 JUMPI PUSH1 0x40 MLOAD PUSH3 0x461BCD PUSH1 0xE5 SHL DUP2 MSTORE PUSH1 0x20 PUSH1 0x4 DUP3 ADD DUP2 SWAP1 MSTORE PUSH1 0x24 DUP3 ADD MSTORE PUSH32 0x537472696E67733A20686578206C656E67746820696E73756666696369656E74 PUSH1 0x44 DUP3 ADD MSTORE PUSH1 0x64 ADD PUSH2 0x530 JUMP JUMPDEST SWAP4 SWAP3 POP POP POP JUMP JUMPDEST PUSH1 0x0 PUSH1 0x20 DUP3 DUP5 SUB SLT ISZERO PUSH2 0x175B JUMPI PUSH1 0x0 DUP1 REVERT JUMPDEST DUP2 CALLDATALOAD PUSH1 0x1 PUSH1 0x1 PUSH1 0xE0 SHL SUB NOT DUP2 AND DUP2 EQ PUSH2 0x1742 JUMPI PUSH1 0x0 DUP1 REVERT JUMPDEST PUSH4 0x4E487B71 PUSH1 0xE0 SHL PUSH1 0x0 MSTORE PUSH1 0x41 PUSH1 0x4 MSTORE PUSH1 0x24 PUSH1 0x0 REVERT JUMPDEST PUSH1 0x0 DUP3 PUSH1 0x1F DUP4 ADD SLT PUSH2 0x179A JUMPI PUSH1 0x0 DUP1 REVERT JUMPDEST DUP2 CALLDATALOAD PUSH8 0xFFFFFFFFFFFFFFFF DUP1 DUP3 GT ISZERO PUSH2 0x17B5 JUMPI PUSH2 0x17B5 PUSH2 0x1773 JUMP JUMPDEST PUSH1 0x40 MLOAD PUSH1 0x1F DUP4 ADD PUSH1 0x1F NOT SWAP1 DUP2 AND PUSH1 0x3F ADD AND DUP2 ADD SWAP1 DUP3 DUP3 GT DUP2 DUP4 LT OR ISZERO PUSH2 0x17DD JUMPI PUSH2 0x17DD PUSH2 0x1773 JUMP JUMPDEST DUP2 PUSH1 0x40 MSTORE DUP4 DUP2 MSTORE DUP7 PUSH1 0x20 DUP6 DUP9 ADD ADD GT ISZERO PUSH2 0x17F6 JUMPI PUSH1 0x0 DUP1 REVERT JUMPDEST DUP4 PUSH1 0x20 DUP8 ADD PUSH1 0x20 DUP4 ADD CALLDATACOPY PUSH1 0x0 PUSH1 0x20 DUP6 DUP4 ADD ADD MSTORE DUP1 SWAP5 POP POP POP POP POP SWAP3 SWAP2 POP POP JUMP JUMPDEST DUP1 CALLDATALOAD PUSH1 0x1 PUSH1 0x1 PUSH1 0xA0 SHL SUB DUP2 AND DUP2 EQ PUSH2 0x182D JUMPI PUSH1 0x0 DUP1 REVERT JUMPDEST SWAP2 SWAP1 POP JUMP JUMPDEST PUSH1 0x0 DUP1 PUSH1 0x40 DUP4 DUP6 SUB SLT ISZERO PUSH2 0x1845 JUMPI PUSH1 0x0 DUP1 REVERT JUMPDEST DUP3 CALLDATALOAD PUSH8 0xFFFFFFFFFFFFFFFF DUP2 GT ISZERO PUSH2 0x185C JUMPI PUSH1 0x0 DUP1 REVERT JUMPDEST PUSH2 0x1868 DUP6 DUP3 DUP7 ADD PUSH2 0x1789 JUMP JUMPDEST SWAP3 POP POP PUSH2 0x1877 PUSH1 0x20 DUP5 ADD PUSH2 0x1816 JUMP JUMPDEST SWAP1 POP SWAP3 POP SWAP3 SWAP1 POP JUMP JUMPDEST PUSH1 0x0 PUSH1 0x20 DUP3 DUP5 SUB SLT ISZERO PUSH2 0x1892 JUMPI PUSH1 0x0 DUP1 REVERT JUMPDEST POP CALLDATALOAD SWAP2 SWAP1 POP JUMP JUMPDEST PUSH1 0x0 DUP1 PUSH1 0x40 DUP4 DUP6 SUB SLT ISZERO PUSH2 0x18AC JUMPI PUSH1 0x0 DUP1 REVERT JUMPDEST DUP3 CALLDATALOAD SWAP2 POP PUSH2 0x1877 PUSH1 0x20 DUP5 ADD PUSH2 0x1816 JUMP JUMPDEST PUSH1 0x0 PUSH1 0x20 DUP3 DUP5 SUB SLT ISZERO PUSH2 0x18CE JUMPI PUSH1 0x0 DUP1 REVERT JUMPDEST DUP2 CALLDATALOAD PUSH8 0xFFFFFFFFFFFFFFFF DUP2 GT ISZERO PUSH2 0x18E5 JUMPI PUSH1 0x0 DUP1 REVERT JUMPDEST PUSH2 0x18F1 DUP5 DUP3 DUP6 ADD PUSH2 0x1789 JUMP JUMPDEST SWAP5 SWAP4 POP POP POP POP JUMP JUMPDEST PUSH1 0x0 JUMPDEST DUP4 DUP2 LT ISZERO PUSH2 0x1914 JUMPI DUP2 DUP2 ADD MLOAD DUP4 DUP3 ADD MSTORE PUSH1 0x20 ADD PUSH2 0x18FC JUMP JUMPDEST POP POP PUSH1 0x0 SWAP2 ADD MSTORE JUMP JUMPDEST PUSH1 0x0 DUP2 MLOAD DUP1 DUP5 MSTORE PUSH2 0x1935 DUP2 PUSH1 0x20 DUP7 ADD PUSH1 0x20 DUP7 ADD PUSH2 0x18F9 JUMP JUMPDEST PUSH1 0x1F ADD PUSH1 0x1F NOT AND SWAP3 SWAP1 SWAP3 ADD PUSH1 0x20 ADD SWAP3 SWAP2 POP POP JUMP JUMPDEST PUSH1 0xA0 DUP2 MSTORE PUSH1 0x0 PUSH2 0x195C PUSH1 0xA0 DUP4 ADD DUP9 PUSH2 0x191D JUMP JUMPDEST PUSH1 0x1 PUSH1 0x1 PUSH1 0xA0 SHL SUB SWAP7 SWAP1 SWAP7 AND PUSH1 0x20 DUP4 ADD MSTORE POP SWAP3 ISZERO ISZERO PUSH1 0x40 DUP5 ADD MSTORE PUSH1 0x60 DUP4 ADD SWAP2 SWAP1 SWAP2 MSTORE PUSH1 0x80 SWAP1 SWAP2 ADD MSTORE SWAP2 SWAP1 POP JUMP JUMPDEST PUSH1 0x0 PUSH1 0x20 DUP3 DUP5 SUB SLT ISZERO PUSH2 0x199B JUMPI PUSH1 0x0 DUP1 REVERT JUMPDEST PUSH2 0x1742 DUP3 PUSH2 0x1816 JUMP JUMPDEST PUSH1 0x80 DUP2 MSTORE PUSH1 0x0 PUSH2 0x19B7 PUSH1 0x80 DUP4 ADD DUP8 PUSH2 0x191D JUMP JUMPDEST SWAP5 ISZERO ISZERO PUSH1 0x20 DUP4 ADD MSTORE POP PUSH1 0x40 DUP2 ADD SWAP3 SWAP1 SWAP3 MSTORE PUSH1 0x60 SWAP1 SWAP2 ADD MSTORE SWAP2 SWAP1 POP JUMP JUMPDEST PUSH1 0x20 DUP2 MSTORE PUSH1 0x0 PUSH2 0x1742 PUSH1 0x20 DUP4 ADD DUP5 PUSH2 0x191D JUMP JUMPDEST PUSH1 0x0 DUP1 PUSH1 0x40 DUP4 DUP6 SUB SLT ISZERO PUSH2 0x19F9 JUMPI PUSH1 0x0 DUP1 REVERT JUMPDEST DUP3 CALLDATALOAD PUSH8 0xFFFFFFFFFFFFFFFF DUP2 GT ISZERO PUSH2 0x1A10 JUMPI PUSH1 0x0 DUP1 REVERT JUMPDEST PUSH2 0x1A1C DUP6 DUP3 DUP7 ADD PUSH2 0x1789 JUMP JUMPDEST SWAP6 PUSH1 0x20 SWAP5 SWAP1 SWAP5 ADD CALLDATALOAD SWAP5 POP POP POP POP JUMP JUMPDEST PUSH1 0x1 DUP2 DUP2 SHR SWAP1 DUP3 AND DUP1 PUSH2 0x1A3F JUMPI PUSH1 0x7F DUP3 AND SWAP2 POP JUMPDEST PUSH1 0x20 DUP3 LT DUP2 SUB PUSH2 0x1A5F JUMPI PUSH4 0x4E487B71 PUSH1 0xE0 SHL PUSH1 0x0 MSTORE PUSH1 0x22 PUSH1 0x4 MSTORE PUSH1 0x24 PUSH1 0x0 REVERT JUMPDEST POP SWAP2 SWAP1 POP JUMP JUMPDEST PUSH1 0x0 DUP3 MLOAD PUSH2 0x1A77 DUP2 DUP5 PUSH1 0x20 DUP8 ADD PUSH2 0x18F9 JUMP JUMPDEST SWAP2 SWAP1 SWAP2 ADD SWAP3 SWAP2 POP POP JUMP JUMPDEST PUSH1 0x1F DUP3 GT ISZERO PUSH2 0x823 JUMPI PUSH1 0x0 DUP2 DUP2 MSTORE PUSH1 0x20 DUP2 KECCAK256 PUSH1 0x1F DUP6 ADD PUSH1 0x5 SHR DUP2 ADD PUSH1 0x20 DUP7 LT ISZERO PUSH2 0x1AA8 JUMPI POP DUP1 JUMPDEST PUSH1 0x1F DUP6 ADD PUSH1 0x5 SHR DUP3 ADD SWAP2 POP JUMPDEST DUP2 DUP2 LT ISZERO PUSH2 0x1AC7 JUMPI DUP3 DUP2 SSTORE PUSH1 0x1 ADD PUSH2 0x1AB4 JUMP JUMPDEST POP POP POP POP POP POP JUMP JUMPDEST DUP2 MLOAD PUSH8 0xFFFFFFFFFFFFFFFF DUP2 GT ISZERO PUSH2 0x1AE9 JUMPI PUSH2 0x1AE9 PUSH2 0x1773 JUMP JUMPDEST PUSH2 0x1AFD DUP2 PUSH2 0x1AF7 DUP5 SLOAD PUSH2 0x1A2B JUMP JUMPDEST DUP5 PUSH2 0x1A81 JUMP JUMPDEST PUSH1 0x20 DUP1 PUSH1 0x1F DUP4 GT PUSH1 0x1 DUP2 EQ PUSH2 0x1B32 JUMPI PUSH1 0x0 DUP5 ISZERO PUSH2 0x1B1A JUMPI POP DUP6 DUP4 ADD MLOAD JUMPDEST PUSH1 0x0 NOT PUSH1 0x3 DUP7 SWAP1 SHL SHR NOT AND PUSH1 0x1 DUP6 SWAP1 SHL OR DUP6 SSTORE PUSH2 0x1AC7 JUMP JUMPDEST PUSH1 0x0 DUP6 DUP2 MSTORE PUSH1 0x20 DUP2 KECCAK256 PUSH1 0x1F NOT DUP7 AND SWAP2 JUMPDEST DUP3 DUP2 LT ISZERO PUSH2 0x1B61 JUMPI DUP9 DUP7 ADD MLOAD DUP3 SSTORE SWAP5 DUP5 ADD SWAP5 PUSH1 0x1 SWAP1 SWAP2 ADD SWAP1 DUP5 ADD PUSH2 0x1B42 JUMP JUMPDEST POP DUP6 DUP3 LT ISZERO PUSH2 0x1B7F JUMPI DUP8 DUP6 ADD MLOAD PUSH1 0x0 NOT PUSH1 0x3 DUP9 SWAP1 SHL PUSH1 0xF8 AND SHR NOT AND DUP2 SSTORE JUMPDEST POP POP POP POP POP PUSH1 0x1 SWAP1 DUP2 SHL ADD SWAP1 SSTORE POP JUMP JUMPDEST PUSH1 0x60 DUP2 MSTORE PUSH1 0x0 PUSH2 0x1BA2 PUSH1 0x60 DUP4 ADD DUP7 PUSH2 0x191D JUMP JUMPDEST PUSH1 0x1 PUSH1 0x1 PUSH1 0xA0 SHL SUB SWAP5 SWAP1 SWAP5 AND PUSH1 0x20 DUP4 ADD MSTORE POP PUSH1 0x40 ADD MSTORE SWAP2 SWAP1 POP JUMP JUMPDEST PUSH1 0x20 DUP1 DUP3 MSTORE PUSH1 0x13 SWAP1 DUP3 ADD MSTORE PUSH19 0x155CD95C88191BD95CC81B9BDD08195E1A5CDD PUSH1 0x6A SHL PUSH1 0x40 DUP3 ADD MSTORE PUSH1 0x60 ADD SWAP1 JUMP JUMPDEST PUSH1 0x80 DUP2 MSTORE PUSH1 0x0 PUSH2 0x1BFD PUSH1 0x80 DUP4 ADD DUP8 PUSH2 0x191D JUMP JUMPDEST PUSH1 0x1 PUSH1 0x1 PUSH1 0xA0 SHL SUB SWAP6 SWAP1 SWAP6 AND PUSH1 0x20 DUP4 ADD MSTORE POP PUSH1 0x40 DUP2 ADD SWAP3 SWAP1 SWAP3 MSTORE PUSH1 0x60 SWAP1 SWAP2 ADD MSTORE SWAP2 SWAP1 POP JUMP JUMPDEST PUSH1 0x80 DUP2 MSTORE PUSH1 0x0 PUSH2 0x1C35 PUSH1 0x80 DUP4 ADD DUP8 PUSH2 0x191D JUMP JUMPDEST PUSH1 0x1 PUSH1 0x1 PUSH1 0xA0 SHL SUB SWAP6 SWAP1 SWAP6 AND PUSH1 0x20 DUP4 ADD MSTORE POP SWAP2 ISZERO ISZERO PUSH1 0x40 DUP4 ADD MSTORE PUSH1 0x60 SWAP1 SWAP2 ADD MSTORE SWAP2 SWAP1 POP JUMP JUMPDEST PUSH32 0x416363657373436F6E74726F6C3A206163636F756E7420000000000000000000 DUP2 MSTORE PUSH1 0x0 DUP4 MLOAD PUSH2 0x1C92 DUP2 PUSH1 0x17 DUP6 ADD PUSH1 0x20 DUP9 ADD PUSH2 0x18F9 JUMP JUMPDEST PUSH17 0x1034B99036B4B9B9B4B733903937B6329 PUSH1 0x7D SHL PUSH1 0x17 SWAP2 DUP5 ADD SWAP2 DUP3 ADD MSTORE DUP4 MLOAD PUSH2 0x1CC3 DUP2 PUSH1 0x28 DUP5 ADD PUSH1 0x20 DUP9 ADD PUSH2 0x18F9 JUMP JUMPDEST ADD PUSH1 0x28 ADD SWAP5 SWAP4 POP POP POP POP JUMP JUMPDEST PUSH4 0x4E487B71 PUSH1 0xE0 SHL PUSH1 0x0 MSTORE PUSH1 0x11 PUSH1 0x4 MSTORE PUSH1 0x24 PUSH1 0x0 REVERT JUMPDEST DUP1 DUP3 MUL DUP2 ISZERO DUP3 DUP3 DIV DUP5 EQ OR PUSH2 0x4A1 JUMPI PUSH2 0x4A1 PUSH2 0x1CCF JUMP JUMPDEST DUP1 DUP3 ADD DUP1 DUP3 GT ISZERO PUSH2 0x4A1 JUMPI PUSH2 0x4A1 PUSH2 0x1CCF JUMP JUMPDEST PUSH4 0x4E487B71 PUSH1 0xE0 SHL PUSH1 0x0 MSTORE PUSH1 0x32 PUSH1 0x4 MSTORE PUSH1 0x24 PUSH1 0x0 REVERT JUMPDEST PUSH1 0x0 DUP2 PUSH2 0x1D34 JUMPI PUSH2 0x1D34 PUSH2 0x1CCF JUMP JUMPDEST POP PUSH1 0x0 NOT ADD SWAP1 JUMP INVALID LOG4 SWAP9 SMOD KECCAK256 0x5C 0xE4 0xD3 SSTORE MULMOD 0x2E CREATE2 0xA8 LOG1 DUP16 JUMP 0xE8 SWAP2 EXTCODECOPY DELEGATECALL LOG2 ADD 0xFB 0xE2 DUP8 DUP3 JUMPDEST MULMOD JUMP SWAP4 0xC2 OR PUSH22 0xA2646970667358221220929BE7482773AA9F984C4EE9 SELFDESTRUCT 0x4E CODESIZE 0xEE CREATE 0x1E PREVRANDAO 0x1E 0xAE 0xC 0xBF 0xAE SUB 0xA5 SWAP8 0xE4 0xC 0xD2 0xCB PUSH1 0x64 PUSH20 0x6F6C634300081400330000000000000000000000 "},"methodIdentifiers":{"ADMIN_ROLE()":"75b238fc","AUDITOR_ROLE()":"6e1d616e","COURT_AUTHORITY_ROLE()":"d421e338","DEFAULT_ADMIN_ROLE()":"a217fddf","REGISTRAR_ROLE()":"f68e9553","SURVEYOR_ROLE()":"be47e028","assignRole(string,bytes32)":"5d053f0d","deactivateUser(string)":"c03a6aa2","getRoleAdmin(bytes32)":"248a9ca3","getUserById(string)":"379f8fc2","getUserByWallet(address)":"3b0328be","grantRole(bytes32,address)":"2f2ff15d","hasRole(bytes32,address)":"91d14854","pause()":"8456cb59","paused()":"5c975abb","reactivateUser(string)":"86fc5286","registerUser(string,address)":"0e54b872","renounceRole(bytes32,address)":"36568abe","revokeRole(bytes32,address)":"d547741f","revokeRole(string,bytes32)":"d6872a3e","supportsInterface(bytes4)":"01ffc9a7","unpause()":"3f4ba83a","userIdToWallet(string)":"7ae24c87","usersById(string)":"32e83165","usersByWallet(address)":"d1a9b2da","walletToUserId(address)":"4bb54384"}}}}}