{
  "_format": "hh-sol-artifact-1",
  "contractName": "UserRegistry",
  "sourceName": "contracts/UserRegistry.sol",
  "abi": [
    {
      "inputs": [],
      "stateMutability": "nonpayable",
      "type": "constructor"
    },
    {
      "anonymous": false,
      "inputs": [
        {
          "indexed": false,
          "internalType": "address",
          "name": "account",
          "type": "address"
        }
      ],
      "name": "Paused",
      "type": "event"
    },
    {
      "anonymous": false,
      "inputs": [
        {
          "indexed": true,
          "internalType": "bytes32",
          "name": "role",
          "type": "bytes32"
        },
        {
          "indexed": true,
          "internalType": "bytes32",
          "name": "previousAdminRole",
          "type": "bytes32"
        },
        {
          "indexed": true,
          "internalType": "bytes32",
          "name": "newAdminRole",
          "type": "bytes32"
        }
      ],
      "name": "RoleAdminChanged",
      "type": "event"
    },
    {
      "anonymous": false,
      "inputs": [
        {
          "indexed": true,
          "internalType": "bytes32",
          "name": "role",
          "type": "bytes32"
        },
        {
          "indexed": true,
          "internalType": "address",
          "name": "account",
          "type": "address"
        },
        {
          "indexed": true,
          "internalType": "address",
          "name": "sender",
          "type": "address"
        }
      ],
      "name": "RoleGranted",
      "type": "event"
    },
    {
      "anonymous": false,
      "inputs": [
        {
          "indexed": false,
          "internalType": "string",
          "name": "userId",
          "type": "string"
        },
        {
          "indexed": false,
          "internalType": "address",
          "name": "walletAddress",
          "type": "address"
        },
        {
          "indexed": false,
          "internalType": "bytes32",
          "name": "role",
          "type": "bytes32"
        },
        {
          "indexed": false,
          "internalType": "uint256",
          "name": "timestamp",
          "type": "uint256"
        }
      ],
      "name": "RoleGranted",
      "type": "event"
    },
    {
      "anonymous": false,
      "inputs": [
        {
          "indexed": true,
          "internalType": "bytes32",
          "name": "role",
          "type": "bytes32"
        },
        {
          "indexed": true,
          "internalType": "address",
          "name": "account",
          "type": "address"
        },
        {
          "indexed": true,
          "internalType": "address",
          "name": "sender",
          "type": "address"
        }
      ],
      "name": "RoleRevoked",
      "type": "event"
    },
    {
      "anonymous": false,
      "inputs": [
        {
          "indexed": false,
          "internalType": "string",
          "name": "userId",
          "type": "string"
        },
        {
          "indexed": false,
          "internalType": "address",
          "name": "walletAddress",
          "type": "address"
        },
        {
          "indexed": false,
          "internalType": "bytes32",
          "name": "role",
          "type": "bytes32"
        },
        {
          "indexed": false,
          "internalType": "uint256",
          "name": "timestamp",
          "type": "uint256"
        }
      ],
      "name": "RoleRevoked",
      "type": "event"
    },
    {
      "anonymous": false,
      "inputs": [
        {
          "indexed": false,
          "internalType": "address",
          "name": "account",
          "type": "address"
        }
      ],
      "name": "Unpaused",
      "type": "event"
    },
    {
      "anonymous": false,
      "inputs": [
        {
          "indexed": false,
          "internalType": "string",
          "name": "userId",
          "type": "string"
        },
        {
          "indexed": false,
          "internalType": "address",
          "name": "walletAddress",
          "type": "address"
        },
        {
          "indexed": false,
          "internalType": "uint256",
          "name": "timestamp",
          "type": "uint256"
        }
      ],
      "name": "UserRegistered",
      "type": "event"
    },
    {
      "anonymous": false,
      "inputs": [
        {
          "indexed": false,
          "internalType": "string",
          "name": "userId",
          "type": "string"
        },
        {
          "indexed": false,
          "internalType": "address",
          "name": "walletAddress",
          "type": "address"
        },
        {
          "indexed": false,
          "internalType": "bool",
          "name": "isActive",
          "type": "bool"
        },
        {
          "indexed": false,
          "internalType": "uint256",
          "name": "timestamp",
          "type": "uint256"
        }
      ],
      "name": "UserStatusChanged",
      "type": "event"
    },
    {
      "inputs": [],
      "name": "ADMIN_ROLE",
      "outputs": [
        {
          "internalType": "bytes32",
          "name": "",
          "type": "bytes32"
        }
      ],
      "stateMutability": "view",
      "type": "function"
    },
    {
      "inputs": [],
      "name": "AUDITOR_ROLE",
      "outputs": [
        {
          "internalType": "bytes32",
          "name": "",
          "type": "bytes32"
        }
      ],
      "stateMutability": "view",
      "type": "function"
    },
    {
      "inputs": [],
      "name": "COURT_AUTHORITY_ROLE",
      "outputs": [
        {
          "internalType": "bytes32",
          "name": "",
          "type": "bytes32"
        }
      ],
      "stateMutability": "view",
      "type": "function"
    },
    {
      "inputs": [],
      "name": "DEFAULT_ADMIN_ROLE",
      "outputs": [
        {
          "internalType": "bytes32",
          "name": "",
          "type": "bytes32"
        }
      ],
      "stateMutability": "view",
      "type": "function"
    },
    {
      "inputs": [],
      "name": "REGISTRAR_ROLE",
      "outputs": [
        {
          "internalType": "bytes32",
          "name": "",
          "type": "bytes32"
        }
      ],
      "stateMutability": "view",
      "type": "function"
    },
    {
      "inputs": [],
      "name": "SURVEYOR_ROLE",
      "outputs": [
        {
          "internalType": "bytes32",
          "name": "",
          "type": "bytes32"
        }
      ],
      "stateMutability": "view",
      "type": "function"
    },
    {
      "inputs": [
        {
          "internalType": "string",
          "name": "userId",
          "type": "string"
        },
        {
          "internalType": "bytes32",
          "name": "role",
          "type": "bytes32"
        }
      ],
      "name": "assignRole",
      "outputs": [],
      "stateMutability": "nonpayable",
      "type": "function"
    },
    {
      "inputs": [
        {
          "internalType": "string",
          "name": "userId",
          "type": "string"
        }
      ],
      "name": "deactivateUser",
      "outputs": [],
      "stateMutability": "nonpayable",
      "type": "function"
    },
    {
      "inputs": [
        {
          "internalType": "bytes32",
          "name": "role",
          "type": "bytes32"
        }
      ],
      "name": "getRoleAdmin",
      "outputs": [
        {
          "internalType": "bytes32",
          "name": "",
          "type": "bytes32"
        }
      ],
      "stateMutability": "view",
      "type": "function"
    },
    {
      "inputs": [
        {
          "internalType": "string",
          "name": "userId",
          "type": "string"
        }
      ],
      "name": "getUserById",
      "outputs": [
        {
          "internalType": "address",
          "name": "walletAddress",
          "type": "address"
        },
        {
          "internalType": "bool",
          "name": "isActive",
          "type": "bool"
        },
        {
          "internalType": "uint256",
          "name": "registeredAt",
          "type": "uint256"
        },
        {
          "internalType": "uint256",
          "name": "lastModified",
          "type": "uint256"
        }
      ],
      "stateMutability": "view",
      "type": "function"
    },
    {
      "inputs": [
        {
          "internalType": "address",
          "name": "wallet",
          "type": "address"
        }
      ],
      "name": "getUserByWallet",
      "outputs": [
        {
          "internalType": "string",
          "name": "userId",
          "type": "string"
        },
        {
          "internalType": "bool",
          "name": "isActive",
          "type": "bool"
        },
        {
          "internalType": "uint256",
          "name": "registeredAt",
          "type": "uint256"
        },
        {
          "internalType": "uint256",
          "name": "lastModified",
          "type": "uint256"
        }
      ],
      "stateMutability": "view",
      "type": "function"
    },
    {
      "inputs": [
        {
          "internalType": "bytes32",
          "name": "role",
          "type": "bytes32"
        },
        {
          "internalType": "address",
          "name": "account",
          "type": "address"
        }
      ],
      "name": "grantRole",
      "outputs": [],
      "stateMutability": "nonpayable",
      "type": "function"
    },
    {
      "inputs": [
        {
          "internalType": "bytes32",
          "name": "role",
          "type": "bytes32"
        },
        {
          "internalType": "address",
          "name": "account",
          "type": "address"
        }
      ],
      "name": "hasRole",
      "outputs": [
        {
          "internalType": "bool",
          "name": "",
          "type": "bool"
        }
      ],
      "stateMutability": "view",
      "type": "function"
    },
    {
      "inputs": [],
      "name": "pause",
      "outputs": [],
      "stateMutability": "nonpayable",
      "type": "function"
    },
    {
      "inputs": [],
      "name": "paused",
      "outputs": [
        {
          "internalType": "bool",
          "name": "",
          "type": "bool"
        }
      ],
      "stateMutability": "view",
      "type": "function"
    },
    {
      "inputs": [
        {
          "internalType": "string",
          "name": "userId",
          "type": "string"
        }
      ],
      "name": "reactivateUser",
      "outputs": [],
      "stateMutability": "nonpayable",
      "type": "function"
    },
    {
      "inputs": [
        {
          "internalType": "string",
          "name": "userId",
          "type": "string"
        },
        {
          "internalType": "address",
          "name": "walletAddress",
          "type": "address"
        }
      ],
      "name": "registerUser",
      "outputs": [],
      "stateMutability": "nonpayable",
      "type": "function"
    },
    {
      "inputs": [
        {
          "internalType": "bytes32",
          "name": "role",
          "type": "bytes32"
        },
        {
          "internalType": "address",
          "name": "account",
          "type": "address"
        }
      ],
      "name": "renounceRole",
      "outputs": [],
      "stateMutability": "nonpayable",
      "type": "function"
    },
    {
      "inputs": [
        {
          "internalType": "bytes32",
          "name": "role",
          "type": "bytes32"
        },
        {
          "internalType": "address",
          "name": "account",
          "type": "address"
        }
      ],
      "name": "revokeRole",
      "outputs": [],
      "stateMutability": "nonpayable",
      "type": "function"
    },
    {
      "inputs": [
        {
          "internalType": "string",
          "name": "userId",
          "type": "string"
        },
        {
          "internalType": "bytes32",
          "name": "role",
          "type": "bytes32"
        }
      ],
      "name": "revokeRole",
      "outputs": [],
      "stateMutability": "nonpayable",
      "type": "function"
    },
    {
      "inputs": [
        {
          "internalType": "bytes4",
          "name": "interfaceId",
          "type": "bytes4"
        }
      ],
      "name": "supportsInterface",
      "outputs": [
        {
          "internalType": "bool",
          "name": "",
          "type": "bool"
        }
      ],
      "stateMutability": "view",
      "type": "function"
    },
    {
      "inputs": [],
      "name": "unpause",
      "outputs": [],
      "stateMutability": "nonpayable",
      "type": "function"
    },
    {
      "inputs": [
        {
          "internalType": "string",
          "name": "",
          "type": "string"
        }
      ],
      "name": "userIdToWallet",
      "outputs": [
        {
          "internalType": "address",
          "name": "",
          "type": "address"
        }
      ],
      "stateMutability": "view",
      "type": "function"
    },
    {
      "inputs": [
        {
          "internalType": "string",
          "name": "",
          "type": "string"
        }
      ],
      "name": "usersById",
      "outputs": [
        {
          "internalType": "string",
          "name": "userId",
          "type": "string"
        },
        {
          "internalType": "address",
          "name": "walletAddress",
          "type": "address"
        },
        {
          "internalType": "bool",
          "name": "isActive",
          "type": "bool"
        },
        {
          "internalType": "uint256",
          "name": "registeredAt",
          "type": "uint256"
        },
        {
          "internalType": "uint256",
          "name": "lastModified",
          "type": "uint256"
        }
      ],
      "stateMutability": "view",
      "type": "function"
    },
    {
      "inputs": [
        {
          "internalType": "address",
          "name": "",
          "type": "address"
        }
      ],
      "name": "usersByWallet",
      "outputs": [
        {
          "internalType": "string",
          "name": "userId",
          "type": "string"
        },
        {
          "internalType": "address",
          "name": "walletAddress",
          "type": "address"
        },
        {
          "internalType": "bool",
          "name": "isActive",
          "type": "bool"
        },
        {
          "internalType": "uint256",
          "name": "registeredAt",
          "type": "uint256"
        },
        {
          "internalType": "uint256",
          "name": "lastModified",
          "type": "uint256"
        }
      ],
      "stateMutability": "view",
      "type": "function"
    },
    {
      "inputs": [
        {
          "internalType": "address",
          "name": "",
          "type": "address"
        }
      ],
      "name": "walletToUserId",
      "outputs": [
        {
          "internalType": "string",
          "name": "",
          "type": "string"
        }
      ],
      "stateMutability": "view",
      "type": "function"
    }
  ],
  "bytecode": "0x60806040523480156200001157600080fd5b506001805460ff19169055620000296000336200005b565b620000557fa49807205ce4d355092ef5a8a18f56e8913cf4a201fbe287825b095693c21775336200005b565b620000fc565b6000828152602081815260408083206001600160a01b038516845290915290205460ff16620000f8576000828152602081815260408083206001600160a01b03851684529091529020805460ff19166001179055620000b73390565b6001600160a01b0316816001600160a01b0316837f2f8788117e7eff1d82e926ec794901d17c78024a50270940304540a733656f0d60405160405180910390a45b5050565b611d92806200010c6000396000f3fe608060405234801561001057600080fd5b506004361061018e5760003560e01c806375b238fc116100de578063be47e02811610097578063d421e33811610071578063d421e338146103fc578063d547741f14610423578063d6872a3e14610436578063f68e95531461044957600080fd5b8063be47e028146103af578063c03a6aa2146103d6578063d1a9b2da146103e957600080fd5b806375b238fc146103185780637ae24c871461032d5780638456cb591461037957806386fc52861461038157806391d1485414610394578063a217fddf146103a757600080fd5b8063379f8fc21161014b5780634bb54384116101255780634bb54384146102b35780635c975abb146102d35780635d053f0d146102de5780636e1d616e146102f157600080fd5b8063379f8fc21461024b5780633b0328be146102885780633f4ba83a146102ab57600080fd5b806301ffc9a7146101935780630e54b872146101bb578063248a9ca3146101d05780632f2ff15d1461020157806332e831651461021457806336568abe14610238575b600080fd5b6101a66101a1366004611749565b610470565b60405190151581526020015b60405180910390f35b6101ce6101c9366004611832565b6104a7565b005b6101f36101de366004611880565b60009081526020819052604090206001015490565b6040519081526020016101b2565b6101ce61020f366004611899565b6107fe565b6102276102223660046118bc565b610828565b6040516101b2959493929190611949565b6101ce610246366004611899565b6108f9565b61025e6102593660046118bc565b610977565b604080516001600160a01b03909516855292151560208501529183015260608201526080016101b2565b61029b610296366004611989565b610adb565b6040516101b294939291906119a4565b6101ce610c43565b6102c66102c1366004611989565b610c59565b6040516101b291906119d3565b60015460ff166101a6565b6101ce6102ec3660046119e6565b610cf3565b6101f37f59a1c48e5837ad7a7f3dcedcbe129bf3249ec4fbf651fd4f5e2600ead39fe2f581565b6101f3600080516020611d3d83398151915281565b61036161033b3660046118bc565b80516020818301810180516005825292820191909301209152546001600160a01b031681565b6040516001600160a01b0390911681526020016101b2565b6101ce610e5d565b6101ce61038f3660046118bc565b610e70565b6101a66103a2366004611899565b610ff0565b6101f3600081565b6101f37f2876b6444ca73956040d49b0d48b2a7c03b6b34daa638a812177f0309da79c7e81565b6101ce6103e43660046118bc565b611019565b6102276103f7366004611989565b611181565b6101f37f6c8c74ca89d51c51762b487723cebc763285d515b4c41b9a0e751475ee4bab2181565b6101ce610431366004611899565b61119c565b6101ce6104443660046119e6565b6111c1565b6101f37fedcc084d3dcd65a1f7f23c65c46722faca6953d28e43150a467cf43e5c30923881565b60006001600160e01b03198216637965db0b60e01b14806104a157506301ffc9a760e01b6001600160e01b03198316145b92915050565b600080516020611d3d8339815191526104bf8161132a565b6001600160a01b038216600090815260026020526040902080548391906104e590611a2b565b1590506105395760405162461bcd60e51b815260206004820152601960248201527f57616c6c657420616c726561647920726567697374657265640000000000000060448201526064015b60405180910390fd5b610541611334565b60008451116105855760405162461bcd60e51b815260206004820152601060248201526f155cd95c881251081c995c5d5a5c995960821b6044820152606401610530565b6001600160a01b0383166105d45760405162461bcd60e51b8152602060048201526016602482015275496e76616c69642077616c6c6574206164647265737360501b6044820152606401610530565b6003846040516105e49190611a65565b90815260405190819003602001902080546105fe90611a2b565b1590506106465760405162461bcd60e51b81526020600482015260166024820152755573657220494420616c72656164792065786973747360501b6044820152606401610530565b6040805160a0810182528581526001600160a01b03851660208083018290526001838501524260608401819052608084015260009182526002905291909120815182919081906106969082611acf565b5060208201516001820180546040808601511515600160a01b026001600160a81b03199092166001600160a01b03909416939093171790556060830151600283015560809092015160039182015590518291906106f4908890611a65565b908152604051908190036020019020815181906107119082611acf565b506020828101516001830180546040808701511515600160a01b026001600160a81b03199092166001600160a01b03948516179190911790915560608501516002850155608090940151600390930192909255908616600090815260049091522061077c8682611acf565b508360058660405161078e9190611a65565b90815260405190819003602001812080546001600160a01b03939093166001600160a01b0319909316929092179091557fda4b066842833e7ab38c0f7ba442824b5eda00740d68ef015889812a792fc3ec906107ef90879087904290611b8f565b60405180910390a15050505050565b6000828152602081905260409020600101546108198161132a565b610823838361137c565b505050565b805160208183018101805160038252928201919093012091528054819061084e90611a2b565b80601f016020809104026020016040519081016040528092919081815260200182805461087a90611a2b565b80156108c75780601f1061089c576101008083540402835291602001916108c7565b820191906000526020600020905b8154815290600101906020018083116108aa57829003601f168201915b505050506001830154600284015460039094015492936001600160a01b03821693600160a01b90920460ff1692509085565b6001600160a01b03811633146109695760405162461bcd60e51b815260206004820152602f60248201527f416363657373436f6e74726f6c3a2063616e206f6e6c792072656e6f756e636560448201526e103937b632b9903337b91039b2b63360891b6064820152608401610530565b6109738282611400565b5050565b600080600080600060038660405161098f9190611a65565b90815260200160405180910390206040518060a00160405290816000820180546109b890611a2b565b80601f01602080910402602001604051908101604052809291908181526020018280546109e490611a2b565b8015610a315780601f10610a0657610100808354040283529160200191610a31565b820191906000526020600020905b815481529060010190602001808311610a1457829003601f168201915b505050918352505060018201546001600160a01b0381166020830152600160a01b900460ff161515604082015260028201546060820152600390910154608090910152805151909150610ab75760405162461bcd60e51b815260206004820152600e60248201526d155cd95c881b9bdd08199bdd5b9960921b6044820152606401610530565b80602001518160400151826060015183608001519450945094509450509193509193565b606060008060008060026000876001600160a01b03166001600160a01b031681526020019081526020016000206040518060a0016040529081600082018054610b2390611a2b565b80601f0160208091040260200160405190810160405280929190818152602001828054610b4f90611a2b565b8015610b9c5780601f10610b7157610100808354040283529160200191610b9c565b820191906000526020600020905b815481529060010190602001808311610b7f57829003601f168201915b505050918352505060018201546001600160a01b0381166020830152600160a01b900460ff161515604082015260028201546060820152600390910154608090910152805151909150610c225760405162461bcd60e51b815260206004820152600e60248201526d155cd95c881b9bdd08199bdd5b9960921b6044820152606401610530565b80516040820151606083015160809093015191989097509195509350915050565b6000610c4e8161132a565b610c56611465565b50565b60046020526000908152604090208054610c7290611a2b565b80601f0160208091040260200160405190810160405280929190818152602001828054610c9e90611a2b565b8015610ceb5780601f10610cc057610100808354040283529160200191610ceb565b820191906000526020600020905b815481529060010190602001808311610cce57829003601f168201915b505050505081565b600080516020611d3d833981519152610d0b8161132a565b826000600382604051610d1e9190611a65565b9081526040519081900360200190208054610d3890611a2b565b905011610d575760405162461bcd60e51b815260040161053090611bbd565b610d5f611334565b82610dac5760405162461bcd60e51b815260206004820181905260248201527f43616e6e6f742061737369676e2044454641554c545f41444d494e5f524f4c456044820152606401610530565b6000600585604051610dbe9190611a65565b908152604051908190036020019020546001600160a01b0316905080610e1e5760405162461bcd60e51b8152602060048201526015602482015274155cd95c881dd85b1b195d081b9bdd08199bdd5b99605a1b6044820152606401610530565b610e28848261137c565b7f24e41ea7a3e1156613d6401b8c1ef5fcaa360b9fd50f2195dfc76b493dca9f5c858286426040516107ef9493929190611bea565b6000610e688161132a565b610c566114b7565b600080516020611d3d833981519152610e888161132a565b816000600382604051610e9b9190611a65565b9081526040519081900360200190208054610eb590611a2b565b905011610ed45760405162461bcd60e51b815260040161053090611bbd565b610edc611334565b6000600384604051610eee9190611a65565b908152604051908190036020019020600181015490915060ff600160a01b9091041615610f535760405162461bcd60e51b81526020600482015260136024820152725573657220616c72656164792061637469766560681b6044820152606401610530565b6001818101805460ff60a01b19808216600160a01b90811784554260038088018290556001600160a01b039485166000908152600260205260408082208901805490961690941790945585548516845292829020909201829055925492517f2a9f8c26496d8bf7fc0143bbb4ad1d5ae8e3e6c85e02d5faf820c12f532d2cf194610fe2948a9416929091611c22565b60405180910390a150505050565b6000918252602082815260408084206001600160a01b0393909316845291905290205460ff1690565b600080516020611d3d8339815191526110318161132a565b8160006003826040516110449190611a65565b908152604051908190036020019020805461105e90611a2b565b90501161107d5760405162461bcd60e51b815260040161053090611bbd565b611085611334565b60006003846040516110979190611a65565b908152604051908190036020019020600181015490915060ff600160a01b909104166110fd5760405162461bcd60e51b81526020600482015260156024820152745573657220616c726561647920696e61637469766560581b6044820152606401610530565b6001808201805460ff60a01b1980821683554260038087018290556001600160a01b03938416600090815260026020526040808220909701805490941690935584548416835285832001819055925493517f2a9f8c26496d8bf7fc0143bbb4ad1d5ae8e3e6c85e02d5faf820c12f532d2cf194610fe2948a94919091169291611c22565b60026020526000908152604090208054819061084e90611a2b565b6000828152602081905260409020600101546111b78161132a565b6108238383611400565b600080516020611d3d8339815191526111d98161132a565b8260006003826040516111ec9190611a65565b908152604051908190036020019020805461120690611a2b565b9050116112255760405162461bcd60e51b815260040161053090611bbd565b61122d611334565b8261127a5760405162461bcd60e51b815260206004820181905260248201527f43616e6e6f74207265766f6b652044454641554c545f41444d494e5f524f4c456044820152606401610530565b600060058560405161128c9190611a65565b908152604051908190036020019020546001600160a01b03169050806112ec5760405162461bcd60e51b8152602060048201526015602482015274155cd95c881dd85b1b195d081b9bdd08199bdd5b99605a1b6044820152606401610530565b6112f68482611400565b7e50a9e1e070b5eaa22087a832ec441523d75bf8ef8320387776e1289ae0bfa5858286426040516107ef9493929190611bea565b610c5681336114f2565b60015460ff161561137a5760405162461bcd60e51b815260206004820152601060248201526f14185d5cd8589b194e881c185d5cd95960821b6044820152606401610530565b565b6113868282610ff0565b610973576000828152602081815260408083206001600160a01b03851684529091529020805460ff191660011790556113bc3390565b6001600160a01b0316816001600160a01b0316837f2f8788117e7eff1d82e926ec794901d17c78024a50270940304540a733656f0d60405160405180910390a45050565b61140a8282610ff0565b15610973576000828152602081815260408083206001600160a01b0385168085529252808320805460ff1916905551339285917ff6391f5c32d9c69d2a47ea670b442974b53935d1edc7fd64eb21e047a839171b9190a45050565b61146d61154b565b6001805460ff191690557f5db9ee0a495bf2e6ff9c91a7834c1ba4fdd244a5e8aa4e537bd38aeae4b073aa335b6040516001600160a01b03909116815260200160405180910390a1565b6114bf611334565b6001805460ff1916811790557f62e78cea01bee320cd4e420270b5ea74000d11b0c9f74754ebdbfc544b05a2583361149a565b6114fc8282610ff0565b6109735761150981611594565b6115148360206115a6565b604051602001611525929190611c5a565b60408051601f198184030181529082905262461bcd60e51b8252610530916004016119d3565b60015460ff1661137a5760405162461bcd60e51b815260206004820152601460248201527314185d5cd8589b194e881b9bdd081c185d5cd95960621b6044820152606401610530565b60606104a16001600160a01b03831660145b606060006115b5836002611ce5565b6115c0906002611cfc565b67ffffffffffffffff8111156115d8576115d8611773565b6040519080825280601f01601f191660200182016040528015611602576020820181803683370190505b509050600360fc1b8160008151811061161d5761161d611d0f565b60200101906001600160f81b031916908160001a905350600f60fb1b8160018151811061164c5761164c611d0f565b60200101906001600160f81b031916908160001a9053506000611670846002611ce5565b61167b906001611cfc565b90505b60018111156116f3576f181899199a1a9b1b9c1cb0b131b232b360811b85600f16601081106116af576116af611d0f565b1a60f81b8282815181106116c5576116c5611d0f565b60200101906001600160f81b031916908160001a90535060049490941c936116ec81611d25565b905061167e565b5083156117425760405162461bcd60e51b815260206004820181905260248201527f537472696e67733a20686578206c656e67746820696e73756666696369656e746044820152606401610530565b9392505050565b60006020828403121561175b57600080fd5b81356001600160e01b03198116811461174257600080fd5b634e487b7160e01b600052604160045260246000fd5b600082601f83011261179a57600080fd5b813567ffffffffffffffff808211156117b5576117b5611773565b604051601f8301601f19908116603f011681019082821181831017156117dd576117dd611773565b816040528381528660208588010111156117f657600080fd5b836020870160208301376000602085830101528094505050505092915050565b80356001600160a01b038116811461182d57600080fd5b919050565b6000806040838503121561184557600080fd5b823567ffffffffffffffff81111561185c57600080fd5b61186885828601611789565b92505061187760208401611816565b90509250929050565b60006020828403121561189257600080fd5b5035919050565b600080604083850312156118ac57600080fd5b8235915061187760208401611816565b6000602082840312156118ce57600080fd5b813567ffffffffffffffff8111156118e557600080fd5b6118f184828501611789565b949350505050565b60005b838110156119145781810151838201526020016118fc565b50506000910152565b600081518084526119358160208601602086016118f9565b601f01601f19169290920160200192915050565b60a08152600061195c60a083018861191d565b6001600160a01b039690961660208301525092151560408401526060830191909152608090910152919050565b60006020828403121561199b57600080fd5b61174282611816565b6080815260006119b7608083018761191d565b9415156020830152506040810192909252606090910152919050565b602081526000611742602083018461191d565b600080604083850312156119f957600080fd5b823567ffffffffffffffff811115611a1057600080fd5b611a1c85828601611789565b95602094909401359450505050565b600181811c90821680611a3f57607f821691505b602082108103611a5f57634e487b7160e01b600052602260045260246000fd5b50919050565b60008251611a778184602087016118f9565b9190910192915050565b601f82111561082357600081815260208120601f850160051c81016020861015611aa85750805b601f850160051c820191505b81811015611ac757828155600101611ab4565b505050505050565b815167ffffffffffffffff811115611ae957611ae9611773565b611afd81611af78454611a2b565b84611a81565b602080601f831160018114611b325760008415611b1a5750858301515b600019600386901b1c1916600185901b178555611ac7565b600085815260208120601f198616915b82811015611b6157888601518255948401946001909101908401611b42565b5085821015611b7f5787850151600019600388901b60f8161c191681555b5050505050600190811b01905550565b606081526000611ba2606083018661191d565b6001600160a01b039490941660208301525060400152919050565b602080825260139082015272155cd95c88191bd95cc81b9bdd08195e1a5cdd606a1b604082015260600190565b608081526000611bfd608083018761191d565b6001600160a01b03959095166020830152506040810192909252606090910152919050565b608081526000611c35608083018761191d565b6001600160a01b03959095166020830152509115156040830152606090910152919050565b7f416363657373436f6e74726f6c3a206163636f756e7420000000000000000000815260008351611c928160178501602088016118f9565b7001034b99036b4b9b9b4b733903937b6329607d1b6017918401918201528351611cc38160288401602088016118f9565b01602801949350505050565b634e487b7160e01b600052601160045260246000fd5b80820281158282048414176104a1576104a1611ccf565b808201808211156104a1576104a1611ccf565b634e487b7160e01b600052603260045260246000fd5b600081611d3457611d34611ccf565b50600019019056fea49807205ce4d355092ef5a8a18f56e8913cf4a201fbe287825b095693c21775a2646970667358221220929be7482773aa9f984c4ee9ff4e38eef01e441eae0cbfae03a597e40cd2cb6064736f6c63430008140033",
  "linkReferences": {},
  "deployedLinkReferences": {}
}